{
  "_format": "hh-sol-artifact-1",
  "contractName": "CasinoLibrary",
  "sourceName": "contracts/CasinoLibrary.sol",
  "abi": [
    {
      "inputs": [
        {
          "internalType": "uint8",
          "name": "id",
          "type": "uint8"
        }
      ],
      "name": "RBS",
      "outputs": [
        {
          "components": [
            {
              "internalType": "uint8[]",
              "name": "numbers",
              "type": "uint8[]"
            },
            {
              "internalType": "uint8",
              "name": "payoutMultiplier",
              "type": "uint8"
            }
          ],
          "internalType": "struct CasinoLibrary.RouletteBettingSlot",
          "name": "rbs",
          "type": "tuple"
        }
      ],
      "stateMutability": "pure",
      "type": "function"
    },
    {
      "inputs": [],
      "name": "RBSBlack",
      "outputs": [
        {
          "components": [
            {
              "internalType": "uint8[]",
              "name": "numbers",
              "type": "uint8[]"
            },
            {
              "internalType": "uint8",
              "name": "payoutMultiplier",
              "type": "uint8"
            }
          ],
          "internalType": "struct CasinoLibrary.RouletteBettingSlot",
          "name": "rbs",
          "type": "tuple"
        }
      ],
      "stateMutability": "pure",
      "type": "function"
    },
    {
      "inputs": [],
      "name": "RBSEven",
      "outputs": [
        {
          "components": [
            {
              "internalType": "uint8[]",
              "name": "numbers",
              "type": "uint8[]"
            },
            {
              "internalType": "uint8",
              "name": "payoutMultiplier",
              "type": "uint8"
            }
          ],
          "internalType": "struct CasinoLibrary.RouletteBettingSlot",
          "name": "rbs",
          "type": "tuple"
        }
      ],
      "stateMutability": "pure",
      "type": "function"
    },
    {
      "inputs": [],
      "name": "RBSOdd",
      "outputs": [
        {
          "components": [
            {
              "internalType": "uint8[]",
              "name": "numbers",
              "type": "uint8[]"
            },
            {
              "internalType": "uint8",
              "name": "payoutMultiplier",
              "type": "uint8"
            }
          ],
          "internalType": "struct CasinoLibrary.RouletteBettingSlot",
          "name": "rbs",
          "type": "tuple"
        }
      ],
      "stateMutability": "pure",
      "type": "function"
    },
    {
      "inputs": [],
      "name": "RBSRed",
      "outputs": [
        {
          "components": [
            {
              "internalType": "uint8[]",
              "name": "numbers",
              "type": "uint8[]"
            },
            {
              "internalType": "uint8",
              "name": "payoutMultiplier",
              "type": "uint8"
            }
          ],
          "internalType": "struct CasinoLibrary.RouletteBettingSlot",
          "name": "rbs",
          "type": "tuple"
        }
      ],
      "stateMutability": "pure",
      "type": "function"
    },
    {
      "inputs": [
        {
          "internalType": "uint8",
          "name": "number",
          "type": "uint8"
        }
      ],
      "name": "RBSSingleNumber",
      "outputs": [
        {
          "components": [
            {
              "internalType": "uint8[]",
              "name": "numbers",
              "type": "uint8[]"
            },
            {
              "internalType": "uint8",
              "name": "payoutMultiplier",
              "type": "uint8"
            }
          ],
          "internalType": "struct CasinoLibrary.RouletteBettingSlot",
          "name": "rbs",
          "type": "tuple"
        }
      ],
      "stateMutability": "pure",
      "type": "function"
    },
    {
      "inputs": [
        {
          "internalType": "uint8",
          "name": "id",
          "type": "uint8"
        }
      ],
      "name": "isValidBetId",
      "outputs": [
        {
          "internalType": "bool",
          "name": "",
          "type": "bool"
        }
      ],
      "stateMutability": "pure",
      "type": "function"
    }
  ],
  "bytecode": "0x610bea61003a600b82828239805160001a60731461002d57634e487b7160e01b600052600060045260246000fd5b30600052607381538281f3fe73000000000000000000000000000000000000000030146080604052600436106100775760003560e01c80635fc997a31461007c578063913d081f1461009a57806391dbafd0146100ad578063b8a96ef4146100c0578063df34752c146100c0578063f377ee70146100c8578063f496cf5f146100d0575b600080fd5b6100846100fa565b6040516100919190610b12565b60405180910390f35b6100846100a8366004610b74565b61041e565b6100846100bb366004610b74565b6104ed565b6100846105a8565b6100846108a3565b6100ea6100de366004610b74565b602860ff909116111590565b6040519015158152602001610091565b610102610afa565b6040805160128082526102608201909252600091602082016102408036833701905050905060018160008151811061013c5761013c610b9e565b602002602001019060ff16908160ff168152505060038160018151811061016557610165610b9e565b602002602001019060ff16908160ff168152505060058160028151811061018e5761018e610b9e565b602002602001019060ff16908160ff16815250506007816003815181106101b7576101b7610b9e565b602002602001019060ff16908160ff16815250506009816004815181106101e0576101e0610b9e565b602002602001019060ff16908160ff1681525050600c8160058151811061020957610209610b9e565b602002602001019060ff16908160ff1681525050600e8160068151811061023257610232610b9e565b602002602001019060ff16908160ff168152505060108160078151811061025b5761025b610b9e565b602002602001019060ff16908160ff168152505060128160088151811061028457610284610b9e565b602002602001019060ff16908160ff16815250506013816009815181106102ad576102ad610b9e565b602002602001019060ff16908160ff1681525050601581600a815181106102d6576102d6610b9e565b602002602001019060ff16908160ff1681525050601781600b815181106102ff576102ff610b9e565b602002602001019060ff16908160ff1681525050601981600c8151811061032857610328610b9e565b602002602001019060ff16908160ff1681525050601b81600d8151811061035157610351610b9e565b602002602001019060ff16908160ff1681525050601e81600e8151811061037a5761037a610b9e565b602002602001019060ff16908160ff1681525050602081600f815181106103a3576103a3610b9e565b602002602001019060ff16908160ff16815250506022816010815181106103cc576103cc610b9e565b602002602001019060ff16908160ff16815250506024816011815181106103f5576103f5610b9e565b60ff90921660209283029190910182015260408051808201909152918252600290820152919050565b610426610afa565b602860ff8316111561047d5760405162461bcd60e51b815260206004820152601b60248201527a119bdd5b9908185b881a5b9d985b1a590810995d1d1a5b99c81251602a1b60448201526064015b60405180910390fd5b60258260ff16101561049857610492826104ed565b92915050565b8160ff16602514156104ac576104926100fa565b8160ff16602614156104c0576104926105a8565b8160ff16602714156104d4576104926108a3565b8160ff16602814156104e8576104926105a8565b919050565b6104f5610afa565b60258260ff16106105485760405162461bcd60e51b815260206004820152601f60248201527f54686174206e756d6265722077696c6c206e6576657220626520647261776e006044820152606401610474565b60408051600180825281830190925260009160208083019080368337019050509050828160008151811061057e5761057e610b9e565b60ff9092166020928302919091018201526040805180820190915291825260249082015292915050565b6105b0610afa565b604080516012808252610260820190925260009160208201610240803683370190505090506002816000815181106105ea576105ea610b9e565b602002602001019060ff16908160ff168152505060048160018151811061061357610613610b9e565b602002602001019060ff16908160ff168152505060068160028151811061063c5761063c610b9e565b602002602001019060ff16908160ff168152505060088160038151811061066557610665610b9e565b602002602001019060ff16908160ff1681525050600a8160048151811061068e5761068e610b9e565b602002602001019060ff16908160ff1681525050600b816005815181106106b7576106b7610b9e565b602002602001019060ff16908160ff1681525050600d816006815181106106e0576106e0610b9e565b602002602001019060ff16908160ff1681525050600f8160078151811061070957610709610b9e565b602002602001019060ff16908160ff168152505060118160088151811061073257610732610b9e565b602002602001019060ff16908160ff168152505060148160098151811061075b5761075b610b9e565b602002602001019060ff16908160ff1681525050601681600a8151811061078457610784610b9e565b602002602001019060ff16908160ff1681525050601881600b815181106107ad576107ad610b9e565b602002602001019060ff16908160ff1681525050601a81600c815181106107d6576107d6610b9e565b602002602001019060ff16908160ff1681525050601c81600d815181106107ff576107ff610b9e565b602002602001019060ff16908160ff1681525050601d81600e8151811061082857610828610b9e565b602002602001019060ff16908160ff1681525050601f81600f8151811061085157610851610b9e565b602002602001019060ff16908160ff168152505060218160108151811061087a5761087a610b9e565b602002602001019060ff16908160ff16815250506023816011815181106103f5576103f5610b9e565b6108ab610afa565b604080516012808252610260820190925260009160208201610240803683370190505090506001816000815181106108e5576108e5610b9e565b602002602001019060ff16908160ff168152505060038160018151811061090e5761090e610b9e565b602002602001019060ff16908160ff168152505060058160028151811061093757610937610b9e565b602002602001019060ff16908160ff168152505060078160038151811061096057610960610b9e565b602002602001019060ff16908160ff168152505060098160048151811061098957610989610b9e565b602002602001019060ff16908160ff1681525050600b816005815181106109b2576109b2610b9e565b602002602001019060ff16908160ff1681525050600d816006815181106109db576109db610b9e565b602002602001019060ff16908160ff1681525050600f81600781518110610a0457610a04610b9e565b602002602001019060ff16908160ff1681525050601181600881518110610a2d57610a2d610b9e565b602002602001019060ff16908160ff1681525050601381600981518110610a5657610a56610b9e565b602002602001019060ff16908160ff1681525050601581600a81518110610a7f57610a7f610b9e565b602002602001019060ff16908160ff1681525050601781600b81518110610aa857610aa8610b9e565b602002602001019060ff16908160ff1681525050601981600c81518110610ad157610ad1610b9e565b602002602001019060ff16908160ff1681525050601b81600d815181106107ff576107ff610b9e565b60408051808201909152606081526000602082015290565b6020808252825160408383015280516060840181905260009291820190839060808601905b80831015610b5a57835160ff168252928401926001929092019190840190610b37565b5060ff848801511660408701528094505050505092915050565b600060208284031215610b8657600080fd5b813560ff81168114610b9757600080fd5b9392505050565b634e487b7160e01b600052603260045260246000fdfea26469706673582212209c4b6d4165cd72cd2bc6e5c71a240f332e35825a387cfc43cf4f952cd20c4ae764736f6c63430008090033",
  "linkReferences": {},
  "deployedLinkReferences": {}
}