{
  "_format": "hh-sol-artifact-1",
  "contractName": "CasinoLibrary",
  "sourceName": "contracts/CasinoLibrary.sol",
  "abi": [
    {
      "inputs": [
        {
          "internalType": "uint8",
          "name": "id",
          "type": "uint8"
        }
      ],
      "name": "RBS",
      "outputs": [
        {
          "components": [
            {
              "internalType": "uint8[]",
              "name": "numbers",
              "type": "uint8[]"
            },
            {
              "internalType": "uint8",
              "name": "payoutMultiplier",
              "type": "uint8"
            }
          ],
          "internalType": "struct CasinoLibrary.RouletteBettingSlot",
          "name": "rbs",
          "type": "tuple"
        }
      ],
      "stateMutability": "pure",
      "type": "function"
    },
    {
      "inputs": [],
      "name": "RBSBlack",
      "outputs": [
        {
          "components": [
            {
              "internalType": "uint8[]",
              "name": "numbers",
              "type": "uint8[]"
            },
            {
              "internalType": "uint8",
              "name": "payoutMultiplier",
              "type": "uint8"
            }
          ],
          "internalType": "struct CasinoLibrary.RouletteBettingSlot",
          "name": "rbs",
          "type": "tuple"
        }
      ],
      "stateMutability": "pure",
      "type": "function"
    },
    {
      "inputs": [],
      "name": "RBSEven",
      "outputs": [
        {
          "components": [
            {
              "internalType": "uint8[]",
              "name": "numbers",
              "type": "uint8[]"
            },
            {
              "internalType": "uint8",
              "name": "payoutMultiplier",
              "type": "uint8"
            }
          ],
          "internalType": "struct CasinoLibrary.RouletteBettingSlot",
          "name": "rbs",
          "type": "tuple"
        }
      ],
      "stateMutability": "pure",
      "type": "function"
    },
    {
      "inputs": [],
      "name": "RBSOdd",
      "outputs": [
        {
          "components": [
            {
              "internalType": "uint8[]",
              "name": "numbers",
              "type": "uint8[]"
            },
            {
              "internalType": "uint8",
              "name": "payoutMultiplier",
              "type": "uint8"
            }
          ],
          "internalType": "struct CasinoLibrary.RouletteBettingSlot",
          "name": "rbs",
          "type": "tuple"
        }
      ],
      "stateMutability": "pure",
      "type": "function"
    },
    {
      "inputs": [],
      "name": "RBSRed",
      "outputs": [
        {
          "components": [
            {
              "internalType": "uint8[]",
              "name": "numbers",
              "type": "uint8[]"
            },
            {
              "internalType": "uint8",
              "name": "payoutMultiplier",
              "type": "uint8"
            }
          ],
          "internalType": "struct CasinoLibrary.RouletteBettingSlot",
          "name": "rbs",
          "type": "tuple"
        }
      ],
      "stateMutability": "pure",
      "type": "function"
    },
    {
      "inputs": [
        {
          "internalType": "uint8",
          "name": "number",
          "type": "uint8"
        }
      ],
      "name": "RBSSingleNumber",
      "outputs": [
        {
          "components": [
            {
              "internalType": "uint8[]",
              "name": "numbers",
              "type": "uint8[]"
            },
            {
              "internalType": "uint8",
              "name": "payoutMultiplier",
              "type": "uint8"
            }
          ],
          "internalType": "struct CasinoLibrary.RouletteBettingSlot",
          "name": "rbs",
          "type": "tuple"
        }
      ],
      "stateMutability": "pure",
      "type": "function"
    },
    {
      "inputs": [
        {
          "internalType": "uint8",
          "name": "id",
          "type": "uint8"
        }
      ],
      "name": "isValidBetId",
      "outputs": [
        {
          "internalType": "bool",
          "name": "",
          "type": "bool"
        }
      ],
      "stateMutability": "pure",
      "type": "function"
    }
  ],
  "bytecode": "0x610b6161003a600b82828239805160001a60731461002d57634e487b7160e01b600052600060045260246000fd5b30600052607381538281f3fe73000000000000000000000000000000000000000030146080604052600436106100775760003560e01c80635fc997a31461007c578063913d081f1461009a57806391dbafd0146100ad578063b8a96ef4146100c0578063df34752c146100c0578063f377ee70146100c8578063f496cf5f146100d0575b600080fd5b6100846100fa565b6040516100919190610a89565b60405180910390f35b6100846100a8366004610aeb565b6103fb565b6100846100bb366004610aeb565b6104ca565b610084610565565b61008461083d565b6100ea6100de366004610aeb565b602860ff909116111590565b6040519015158152602001610091565b610102610a71565b606060018160008151811061011957610119610b15565b602002602001019060ff16908160ff168152505060038160018151811061014257610142610b15565b602002602001019060ff16908160ff168152505060058160028151811061016b5761016b610b15565b602002602001019060ff16908160ff168152505060078160038151811061019457610194610b15565b602002602001019060ff16908160ff16815250506009816004815181106101bd576101bd610b15565b602002602001019060ff16908160ff1681525050600c816005815181106101e6576101e6610b15565b602002602001019060ff16908160ff1681525050600e8160068151811061020f5761020f610b15565b602002602001019060ff16908160ff168152505060108160078151811061023857610238610b15565b602002602001019060ff16908160ff168152505060128160088151811061026157610261610b15565b602002602001019060ff16908160ff168152505060138160098151811061028a5761028a610b15565b602002602001019060ff16908160ff1681525050601581600a815181106102b3576102b3610b15565b602002602001019060ff16908160ff1681525050601781600b815181106102dc576102dc610b15565b602002602001019060ff16908160ff1681525050601981600c8151811061030557610305610b15565b602002602001019060ff16908160ff1681525050601b81600d8151811061032e5761032e610b15565b602002602001019060ff16908160ff1681525050601e81600e8151811061035757610357610b15565b602002602001019060ff16908160ff1681525050602081600f8151811061038057610380610b15565b602002602001019060ff16908160ff16815250506022816010815181106103a9576103a9610b15565b602002602001019060ff16908160ff16815250506024816011815181106103d2576103d2610b15565b60ff90921660209283029190910182015260408051808201909152918252600290820152919050565b610403610a71565b602860ff8316111561045a5760405162461bcd60e51b815260206004820152601b60248201527a119bdd5b9908185b881a5b9d985b1a590810995d1d1a5b99c81251602a1b60448201526064015b60405180910390fd5b60258260ff1610156104755761046f826104ca565b92915050565b8160ff16602514156104895761046f6100fa565b8160ff166026141561049d5761046f610565565b8160ff16602714156104b15761046f61083d565b8160ff16602814156104c55761046f610565565b919050565b6104d2610a71565b60258260ff16106105255760405162461bcd60e51b815260206004820152601f60248201527f54686174206e756d6265722077696c6c206e6576657220626520647261776e006044820152606401610451565b6060828160008151811061053b5761053b610b15565b60ff9092166020928302919091018201526040805180820190915291825260249082015292915050565b61056d610a71565b606060028160008151811061058457610584610b15565b602002602001019060ff16908160ff16815250506004816001815181106105ad576105ad610b15565b602002602001019060ff16908160ff16815250506006816002815181106105d6576105d6610b15565b602002602001019060ff16908160ff16815250506008816003815181106105ff576105ff610b15565b602002602001019060ff16908160ff1681525050600a8160048151811061062857610628610b15565b602002602001019060ff16908160ff1681525050600b8160058151811061065157610651610b15565b602002602001019060ff16908160ff1681525050600d8160068151811061067a5761067a610b15565b602002602001019060ff16908160ff1681525050600f816007815181106106a3576106a3610b15565b602002602001019060ff16908160ff16815250506011816008815181106106cc576106cc610b15565b602002602001019060ff16908160ff16815250506014816009815181106106f5576106f5610b15565b602002602001019060ff16908160ff1681525050601681600a8151811061071e5761071e610b15565b602002602001019060ff16908160ff1681525050601881600b8151811061074757610747610b15565b602002602001019060ff16908160ff1681525050601a81600c8151811061077057610770610b15565b602002602001019060ff16908160ff1681525050601c81600d8151811061079957610799610b15565b602002602001019060ff16908160ff1681525050601d81600e815181106107c2576107c2610b15565b602002602001019060ff16908160ff1681525050601f81600f815181106107eb576107eb610b15565b602002602001019060ff16908160ff168152505060218160108151811061081457610814610b15565b602002602001019060ff16908160ff16815250506023816011815181106103d2576103d2610b15565b610845610a71565b606060018160008151811061085c5761085c610b15565b602002602001019060ff16908160ff168152505060038160018151811061088557610885610b15565b602002602001019060ff16908160ff16815250506005816002815181106108ae576108ae610b15565b602002602001019060ff16908160ff16815250506007816003815181106108d7576108d7610b15565b602002602001019060ff16908160ff168152505060098160048151811061090057610900610b15565b602002602001019060ff16908160ff1681525050600b8160058151811061092957610929610b15565b602002602001019060ff16908160ff1681525050600d8160068151811061095257610952610b15565b602002602001019060ff16908160ff1681525050600f8160078151811061097b5761097b610b15565b602002602001019060ff16908160ff16815250506011816008815181106109a4576109a4610b15565b602002602001019060ff16908160ff16815250506013816009815181106109cd576109cd610b15565b602002602001019060ff16908160ff1681525050601581600a815181106109f6576109f6610b15565b602002602001019060ff16908160ff1681525050601781600b81518110610a1f57610a1f610b15565b602002602001019060ff16908160ff1681525050601981600c81518110610a4857610a48610b15565b602002602001019060ff16908160ff1681525050601b81600d8151811061079957610799610b15565b60408051808201909152606081526000602082015290565b6020808252825160408383015280516060840181905260009291820190839060808601905b80831015610ad157835160ff168252928401926001929092019190840190610aae565b5060ff848801511660408701528094505050505092915050565b600060208284031215610afd57600080fd5b813560ff81168114610b0e57600080fd5b9392505050565b634e487b7160e01b600052603260045260246000fdfea26469706673582212207d963bf2cb0966ef05f21d586a4debeb9856521f610c138035568c2a592d47be64736f6c63430008090033",
  "linkReferences": {},
  "deployedLinkReferences": {}
}