{
  "_format": "hh-sol-artifact-1",
  "contractName": "RandomNumberConsumer",
  "sourceName": "contracts/RandomNumberConsumer.sol",
  "abi": [
    {
      "inputs": [
        {
          "internalType": "address",
          "name": "_vrfCoordinator",
          "type": "address"
        },
        {
          "internalType": "address",
          "name": "_linkToken",
          "type": "address"
        },
        {
          "internalType": "bytes32",
          "name": "_keyHash",
          "type": "bytes32"
        },
        {
          "internalType": "uint256",
          "name": "_fee",
          "type": "uint256"
        },
        {
          "internalType": "address payable",
          "name": "_pokeMe",
          "type": "address"
        },
        {
          "internalType": "bool",
          "name": "_debug",
          "type": "bool"
        }
      ],
      "stateMutability": "nonpayable",
      "type": "constructor"
    },
    {
      "anonymous": false,
      "inputs": [
        {
          "indexed": false,
          "internalType": "address",
          "name": "oldAddr",
          "type": "address"
        },
        {
          "indexed": false,
          "internalType": "address",
          "name": "newAddr",
          "type": "address"
        }
      ],
      "name": "CasinoAddressChanged",
      "type": "event"
    },
    {
      "anonymous": false,
      "inputs": [
        {
          "indexed": true,
          "internalType": "address",
          "name": "previousOwner",
          "type": "address"
        },
        {
          "indexed": true,
          "internalType": "address",
          "name": "newOwner",
          "type": "address"
        }
      ],
      "name": "OwnershipTransferred",
      "type": "event"
    },
    {
      "anonymous": false,
      "inputs": [
        {
          "indexed": false,
          "internalType": "uint256",
          "name": "round",
          "type": "uint256"
        },
        {
          "indexed": false,
          "internalType": "bytes32",
          "name": "requestId",
          "type": "bytes32"
        }
      ],
      "name": "RandomNumberRequest",
      "type": "event"
    },
    {
      "anonymous": false,
      "inputs": [
        {
          "indexed": false,
          "internalType": "uint256",
          "name": "round",
          "type": "uint256"
        },
        {
          "indexed": false,
          "internalType": "bytes32",
          "name": "requestId",
          "type": "bytes32"
        }
      ],
      "name": "ResponseReceived",
      "type": "event"
    },
    {
      "anonymous": false,
      "inputs": [
        {
          "indexed": false,
          "internalType": "address",
          "name": "tableAddress",
          "type": "address"
        }
      ],
      "name": "TableAddressAdded",
      "type": "event"
    },
    {
      "inputs": [],
      "name": "casinoAddr",
      "outputs": [
        {
          "internalType": "address",
          "name": "",
          "type": "address"
        }
      ],
      "stateMutability": "view",
      "type": "function"
    },
    {
      "inputs": [],
      "name": "getCurrentRound",
      "outputs": [
        {
          "internalType": "uint256",
          "name": "",
          "type": "uint256"
        }
      ],
      "stateMutability": "view",
      "type": "function"
    },
    {
      "inputs": [],
      "name": "getRandomNumber",
      "outputs": [],
      "stateMutability": "nonpayable",
      "type": "function"
    },
    {
      "inputs": [
        {
          "internalType": "uint256",
          "name": "roundId",
          "type": "uint256"
        }
      ],
      "name": "getRoundRandomness",
      "outputs": [
        {
          "internalType": "uint256",
          "name": "",
          "type": "uint256"
        }
      ],
      "stateMutability": "view",
      "type": "function"
    },
    {
      "inputs": [],
      "name": "isDebug",
      "outputs": [
        {
          "internalType": "bool",
          "name": "",
          "type": "bool"
        }
      ],
      "stateMutability": "view",
      "type": "function"
    },
    {
      "inputs": [
        {
          "internalType": "uint256",
          "name": "randomness",
          "type": "uint256"
        }
      ],
      "name": "mockRandomness",
      "outputs": [],
      "stateMutability": "nonpayable",
      "type": "function"
    },
    {
      "inputs": [],
      "name": "owner",
      "outputs": [
        {
          "internalType": "address",
          "name": "",
          "type": "address"
        }
      ],
      "stateMutability": "view",
      "type": "function"
    },
    {
      "inputs": [],
      "name": "pokeMe",
      "outputs": [
        {
          "internalType": "address payable",
          "name": "",
          "type": "address"
        }
      ],
      "stateMutability": "view",
      "type": "function"
    },
    {
      "inputs": [
        {
          "internalType": "bytes32",
          "name": "requestId",
          "type": "bytes32"
        },
        {
          "internalType": "uint256",
          "name": "randomness",
          "type": "uint256"
        }
      ],
      "name": "rawFulfillRandomness",
      "outputs": [],
      "stateMutability": "nonpayable",
      "type": "function"
    },
    {
      "inputs": [],
      "name": "renounceOwnership",
      "outputs": [],
      "stateMutability": "nonpayable",
      "type": "function"
    },
    {
      "inputs": [],
      "name": "setBetsPresent",
      "outputs": [],
      "stateMutability": "nonpayable",
      "type": "function"
    },
    {
      "inputs": [
        {
          "internalType": "address",
          "name": "_casinoAddr",
          "type": "address"
        }
      ],
      "name": "setCasinoAddress",
      "outputs": [],
      "stateMutability": "nonpayable",
      "type": "function"
    },
    {
      "inputs": [
        {
          "internalType": "uint8",
          "name": "_interval",
          "type": "uint8"
        }
      ],
      "name": "setGelatoInterval",
      "outputs": [],
      "stateMutability": "nonpayable",
      "type": "function"
    },
    {
      "inputs": [
        {
          "internalType": "address",
          "name": "tableAddress",
          "type": "address"
        }
      ],
      "name": "setTable",
      "outputs": [],
      "stateMutability": "nonpayable",
      "type": "function"
    },
    {
      "inputs": [
        {
          "internalType": "address",
          "name": "newOwner",
          "type": "address"
        }
      ],
      "name": "transferOwnership",
      "outputs": [],
      "stateMutability": "nonpayable",
      "type": "function"
    },
    {
      "inputs": [
        {
          "internalType": "uint256",
          "name": "amount",
          "type": "uint256"
        }
      ],
      "name": "withdrawLink",
      "outputs": [],
      "stateMutability": "nonpayable",
      "type": "function"
    }
  ],
  "bytecode": "0x60e06040526004805460ff60a01b1916600f60a11b17905534801561002357600080fd5b50604051611005380380611005833981016040819052610042916100f0565b81868661004e33610088565b6001600160a01b0391821660a05281166080521660c05260029390935550600355600a805460ff1916911515919091179055506101699050565b600080546001600160a01b038381166001600160a01b0319831681178455604051919092169283917f8be0079c531659141344cd1fd0a4f28419497f9722a3daafe3b4186f6b6457e09190a35050565b6001600160a01b03811681146100ed57600080fd5b50565b60008060008060008060c0878903121561010957600080fd5b8651610114816100d8565b6020880151909650610125816100d8565b8095505060408701519350606087015192506080870151610145816100d8565b60a0880151909250801515811461015b57600080fd5b809150509295509295509295565b60805160a05160c051610e586101ad600039600081816101a1015261061b01526000818161055f0152610aad01526000818161047b0152610a7e0152610e586000f3fe608060405234801561001057600080fd5b50600436106100d05760003560e01c80630bb79719146100d557806315b162d4146100ea57806329c88c1e146100fd578063715018a6146101055780637a8042bd1461010d578063885620bb146101205780638da5cb5b1461014657806394985ddd1461015b578063a32bf5971461016e578063ac10921814610176578063c77df33b14610189578063c84eee0d1461019c578063dbdff2c1146101c3578063f21aefd2146101cb578063f2fde38b146101e1578063ff55e2ee146101f4575b600080fd5b6100e86100e3366004610c0c565b610207565b005b6100e86100f8366004610c3c565b6102cb565b6100e861036d565b6100e86103f5565b6100e861011b366004610c5f565b610430565b61013361012e366004610c5f565b610503565b6040519081526020015b60405180910390f35b61014e610545565b60405161013d9190610c78565b6100e8610169366004610c8c565b610554565b600554610133565b60045461014e906001600160a01b031681565b6100e8610197366004610c5f565b6105d6565b61014e7f000000000000000000000000000000000000000000000000000000000000000081565b6100e8610610565b600a5460ff16604051901515815260200161013d565b6100e86101ef366004610c0c565b61082d565b6100e8610202366004610c0c565b6108ca565b6004546001600160a01b0316331461025a5760405162461bcd60e51b8152602060048201526011602482015270436173696e6f2063616c6c73206f6e6c7960781b60448201526064015b60405180910390fd5b6001600160a01b03811661026d57600080fd5b6001600160a01b03811660009081526008602052604090819020805460ff19166001179055517fa52a154fb1bbd662fd774e5a0f50e4016bcfff306b1123365c2d1adb4e755cd7906102c0908390610c78565b60405180910390a150565b336102d4610545565b6001600160a01b0316146102fa5760405162461bcd60e51b815260040161025190610cae565b601e8160ff161161034d5760405162461bcd60e51b815260206004820181905260248201527f496e74657276616c206d7573742062652067726561746572207468616e2033306044820152606401610251565b6004805460ff909216600160a01b0260ff60a01b19909216919091179055565b3360009081526008602052604090205460ff1661039c5760405162461bcd60e51b815260040161025190610ce3565b600654610100900460ff16156103e65760405162461bcd60e51b815260206004820152600f60248201526e10995d1cc8185c994818db1bdcd959608a1b6044820152606401610251565b6006805460ff19166001179055565b336103fe610545565b6001600160a01b0316146104245760405162461bcd60e51b815260040161025190610cae565b61042e600061096e565b565b33610439610545565b6001600160a01b03161461045f5760405162461bcd60e51b815260040161025190610cae565b60405163a9059cbb60e01b8152336004820152602481018290527f00000000000000000000000000000000000000000000000000000000000000006001600160a01b03169063a9059cbb90604401602060405180830381600087803b1580156104c757600080fd5b505af11580156104db573d6000803e3d6000fd5b505050506040513d601f19601f820116820180604052508101906104ff9190610d0d565b5050565b3360009081526008602052604081205460ff166105325760405162461bcd60e51b815260040161025190610ce3565b5060009081526009602052604090205490565b6000546001600160a01b031690565b336001600160a01b037f000000000000000000000000000000000000000000000000000000000000000016146105cc5760405162461bcd60e51b815260206004820152601f60248201527f4f6e6c7920565246436f6f7264696e61746f722063616e2066756c66696c6c006044820152606401610251565b6104ff82826109be565b6040516552616e646f6d60d01b602082015261060d9060260160405160208183030381529060405261060790610d2f565b826109be565b50565b336001600160a01b037f000000000000000000000000000000000000000000000000000000000000000016146106825760405162461bcd60e51b8152602060048201526017602482015276506f6b654d6552656164793a206f6e6c79506f6b654d6560481b6044820152606401610251565b600a5460ff16806106ad5750600454600754600160a01b90910460ff16906106aa9042610d6c565b10155b6107055760405162461bcd60e51b8152602060048201526024808201527f54696d6520666f72206e6578742067656c61746f206a6f62206e6f7420656c616044820152631c1cd95960e21b6064820152608401610251565b600654610100900460ff16156107585760405162461bcd60e51b815260206004820152601860248201527729ba34b636103bb0b4ba34b733903337b91030902927239760411b6044820152606401610251565b60065460ff1615156001146107bb5760405162461bcd60e51b815260206004820152602360248201527f42657473206d7573742062652070726573656e7420746f207265717565737420604482015262524e4760e81b6064820152608401610251565b426007556006805461ff001916610100179055600a5460009060ff166107ee576107e9600254600354610a7a565b6107f1565b60005b60055460408051918252602082018390529192507f99a13b3c5182b05d2f24a1eb87b0a8bd9d51ee732d8b2d7f20ce5ac54792744791016102c0565b33610836610545565b6001600160a01b03161461085c5760405162461bcd60e51b815260040161025190610cae565b6001600160a01b0381166108c15760405162461bcd60e51b815260206004820152602660248201527f4f776e61626c653a206e6577206f776e657220697320746865207a65726f206160448201526564647265737360d01b6064820152608401610251565b61060d8161096e565b336108d3610545565b6001600160a01b0316146108f95760405162461bcd60e51b815260040161025190610cae565b6001600160a01b03811661090c57600080fd5b600480546001600160a01b038381166001600160a01b031983168117909355604080519190921680825260208201939093527fb2a001f94d95b548b08d662d504c3ee3ad4b671f844edfe22d10f8c40c65e4df91015b60405180910390a15050565b600080546001600160a01b038381166001600160a01b0319831681178455604051919092169283917f8be0079c531659141344cd1fd0a4f28419497f9722a3daafe3b4186f6b6457e09190a35050565b60065460ff610100909104161515600114610a0c5760405162461bcd60e51b815260206004820152600e60248201526d4e6f20524e472070656e64696e6760901b6044820152606401610251565b60058054906000610a1c83610d83565b9091555050600580546000908152600960209081526040918290208490556006805461ffff19169055915481519081529182018490527f5bf9d8b27998e78b585a28e26e6a0c590aa3414eca455e8ece034abdd226ff769101610962565b60007f00000000000000000000000000000000000000000000000000000000000000006001600160a01b0316634000aea07f000000000000000000000000000000000000000000000000000000000000000084866000604051602001610aea929190918252602082015260400190565b6040516020818303038152906040526040518463ffffffff1660e01b8152600401610b1793929190610d9e565b602060405180830381600087803b158015610b3157600080fd5b505af1158015610b45573d6000803e3d6000fd5b505050506040513d601f19601f82011682018060405250810190610b699190610d0d565b50600083815260016020818152604080842054815180840189905280830186905230606082015260808082018390528351808303909101815260a09091019092528151918301919091209387905290829052610bc491610e0a565b600085815260016020526040902055610c048482604080516020808201949094528082019290925280518083038201815260609092019052805191012090565b949350505050565b600060208284031215610c1e57600080fd5b81356001600160a01b0381168114610c3557600080fd5b9392505050565b600060208284031215610c4e57600080fd5b813560ff81168114610c3557600080fd5b600060208284031215610c7157600080fd5b5035919050565b6001600160a01b0391909116815260200190565b60008060408385031215610c9f57600080fd5b50508035926020909101359150565b6020808252818101527f4f776e61626c653a2063616c6c6572206973206e6f7420746865206f776e6572604082015260600190565b60208082526010908201526f5461626c652063616c6c73206f6e6c7960801b604082015260600190565b600060208284031215610d1f57600080fd5b81518015158114610c3557600080fd5b80516020808301519190811015610d50576000198160200360031b1b821691505b50919050565b634e487b7160e01b600052601160045260246000fd5b600082821015610d7e57610d7e610d56565b500390565b6000600019821415610d9757610d97610d56565b5060010190565b60018060a01b038416815260006020848184015260606040840152835180606085015260005b81811015610de057858101830151858201608001528201610dc4565b81811115610df2576000608083870101525b50601f01601f19169290920160800195945050505050565b60008219821115610e1d57610e1d610d56565b50019056fea264697066735822122028ee935afa033c974e537a25538072e936390a9495f89eef63da625d68d2d9f064736f6c63430008090033",
  "linkReferences": {},
  "deployedLinkReferences": {}
}