{
  "_format": "hh-sol-artifact-1",
  "contractName": "RandomNumberConsumer",
  "sourceName": "contracts/RandomNumberConsumer.sol",
  "abi": [
    {
      "inputs": [
        {
          "internalType": "address",
          "name": "_vrfCoordinator",
          "type": "address"
        },
        {
          "internalType": "address",
          "name": "_linkToken",
          "type": "address"
        },
        {
          "internalType": "bytes32",
          "name": "_keyHash",
          "type": "bytes32"
        },
        {
          "internalType": "uint256",
          "name": "_fee",
          "type": "uint256"
        },
        {
          "internalType": "address payable",
          "name": "_pokeMe",
          "type": "address"
        }
      ],
      "stateMutability": "nonpayable",
      "type": "constructor"
    },
    {
      "anonymous": false,
      "inputs": [
        {
          "indexed": true,
          "internalType": "address",
          "name": "previousOwner",
          "type": "address"
        },
        {
          "indexed": true,
          "internalType": "address",
          "name": "newOwner",
          "type": "address"
        }
      ],
      "name": "OwnershipTransferred",
      "type": "event"
    },
    {
      "anonymous": false,
      "inputs": [
        {
          "indexed": false,
          "internalType": "uint256",
          "name": "round",
          "type": "uint256"
        },
        {
          "indexed": false,
          "internalType": "bytes32",
          "name": "requestId",
          "type": "bytes32"
        }
      ],
      "name": "RandomNumberRequest",
      "type": "event"
    },
    {
      "anonymous": false,
      "inputs": [
        {
          "indexed": false,
          "internalType": "uint256",
          "name": "round",
          "type": "uint256"
        },
        {
          "indexed": false,
          "internalType": "bytes32",
          "name": "requestId",
          "type": "bytes32"
        }
      ],
      "name": "ResponseReceived",
      "type": "event"
    },
    {
      "anonymous": false,
      "inputs": [
        {
          "indexed": false,
          "internalType": "address",
          "name": "oldAddr",
          "type": "address"
        },
        {
          "indexed": false,
          "internalType": "address",
          "name": "newAddr",
          "type": "address"
        }
      ],
      "name": "casinoAddressChanged",
      "type": "event"
    },
    {
      "inputs": [],
      "name": "RNGPending",
      "outputs": [
        {
          "internalType": "bool",
          "name": "",
          "type": "bool"
        }
      ],
      "stateMutability": "view",
      "type": "function"
    },
    {
      "inputs": [],
      "name": "betsPresent",
      "outputs": [
        {
          "internalType": "bool",
          "name": "",
          "type": "bool"
        }
      ],
      "stateMutability": "view",
      "type": "function"
    },
    {
      "inputs": [],
      "name": "casinoAddr",
      "outputs": [
        {
          "internalType": "address",
          "name": "",
          "type": "address"
        }
      ],
      "stateMutability": "view",
      "type": "function"
    },
    {
      "inputs": [
        {
          "internalType": "bytes32",
          "name": "requestId",
          "type": "bytes32"
        },
        {
          "internalType": "uint256",
          "name": "randomness",
          "type": "uint256"
        }
      ],
      "name": "forceRandom",
      "outputs": [],
      "stateMutability": "nonpayable",
      "type": "function"
    },
    {
      "inputs": [],
      "name": "getDrawings",
      "outputs": [
        {
          "internalType": "uint256[]",
          "name": "",
          "type": "uint256[]"
        }
      ],
      "stateMutability": "view",
      "type": "function"
    },
    {
      "inputs": [],
      "name": "getRandomNumber",
      "outputs": [],
      "stateMutability": "nonpayable",
      "type": "function"
    },
    {
      "inputs": [],
      "name": "lastExecuted",
      "outputs": [
        {
          "internalType": "uint256",
          "name": "",
          "type": "uint256"
        }
      ],
      "stateMutability": "view",
      "type": "function"
    },
    {
      "inputs": [],
      "name": "owner",
      "outputs": [
        {
          "internalType": "address",
          "name": "",
          "type": "address"
        }
      ],
      "stateMutability": "view",
      "type": "function"
    },
    {
      "inputs": [],
      "name": "pokeMe",
      "outputs": [
        {
          "internalType": "address payable",
          "name": "",
          "type": "address"
        }
      ],
      "stateMutability": "view",
      "type": "function"
    },
    {
      "inputs": [
        {
          "internalType": "bytes32",
          "name": "requestId",
          "type": "bytes32"
        },
        {
          "internalType": "uint256",
          "name": "randomness",
          "type": "uint256"
        }
      ],
      "name": "rawFulfillRandomness",
      "outputs": [],
      "stateMutability": "nonpayable",
      "type": "function"
    },
    {
      "inputs": [],
      "name": "renounceOwnership",
      "outputs": [],
      "stateMutability": "nonpayable",
      "type": "function"
    },
    {
      "inputs": [],
      "name": "setBetsPresent",
      "outputs": [],
      "stateMutability": "nonpayable",
      "type": "function"
    },
    {
      "inputs": [
        {
          "internalType": "address",
          "name": "_casinoAddr",
          "type": "address"
        }
      ],
      "name": "setCasinoAddress",
      "outputs": [],
      "stateMutability": "nonpayable",
      "type": "function"
    },
    {
      "inputs": [
        {
          "internalType": "uint256",
          "name": "_interval",
          "type": "uint256"
        }
      ],
      "name": "setGelatoInterval",
      "outputs": [],
      "stateMutability": "nonpayable",
      "type": "function"
    },
    {
      "inputs": [
        {
          "internalType": "address",
          "name": "newOwner",
          "type": "address"
        }
      ],
      "name": "transferOwnership",
      "outputs": [],
      "stateMutability": "nonpayable",
      "type": "function"
    },
    {
      "inputs": [
        {
          "internalType": "uint256",
          "name": "_roundId",
          "type": "uint256"
        }
      ],
      "name": "transferRandom",
      "outputs": [
        {
          "components": [
            {
              "internalType": "uint256",
              "name": "roundId",
              "type": "uint256"
            },
            {
              "internalType": "uint256",
              "name": "lastExecuted",
              "type": "uint256"
            },
            {
              "internalType": "uint256",
              "name": "lastReturned",
              "type": "uint256"
            },
            {
              "internalType": "uint256",
              "name": "randomNumber",
              "type": "uint256"
            }
          ],
          "internalType": "struct RandomNumberConsumer.drawingDetail",
          "name": "",
          "type": "tuple"
        }
      ],
      "stateMutability": "view",
      "type": "function"
    },
    {
      "inputs": [
        {
          "internalType": "uint256",
          "name": "amount",
          "type": "uint256"
        }
      ],
      "name": "withdrawLink",
      "outputs": [],
      "stateMutability": "nonpayable",
      "type": "function"
    }
  ],
  "bytecode": "0x60e0604052601e60065534801561001557600080fd5b5060405161109f38038061109f833981016040819052610034916100d1565b80858561004033610069565b6001600160a01b0391821660a05281166080521660c05250600291909155600355506101339050565b600080546001600160a01b038381166001600160a01b0319831681178455604051919092169283917f8be0079c531659141344cd1fd0a4f28419497f9722a3daafe3b4186f6b6457e09190a35050565b6001600160a01b03811681146100ce57600080fd5b50565b600080600080600060a086880312156100e957600080fd5b85516100f4816100b9565b6020870151909550610105816100b9565b8094505060408601519250606086015191506080860151610125816100b9565b809150509295509295909350565b60805160a05160c051610f28610177600039600061021b01526000818161051a0152610b94015260008181610478015281816106dc0152610b650152610f286000f3fe608060405234801561001057600080fd5b50600436106100db5760003560e01c80631c15ff77146100e057806329c88c1e146100fc578063611e2758146101105780636cf013f014610123578063715018a614610145578063749e1d1b1461014d5780637a8042bd146101605780638da5cb5b1461017357806394985ddd146101885780639d497a5b1461019b578063a92a0dc4146101a8578063ac109218146101ee578063c40ff72714610201578063c84eee0d14610216578063dbdff2c11461023d578063f2fde38b14610245578063ff55e2ee14610258575b600080fd5b6100e960085481565b6040519081526020015b60405180910390f35b61010e6007805460ff19166001179055565b005b61010e61011e366004610cf3565b61026b565b60075461013590610100900460ff1681565b60405190151581526020016100f3565b61010e6102f8565b61010e61015b366004610d0c565b610333565b61010e61016e366004610cf3565b61042d565b61017b610500565b6040516100f39190610d2e565b61010e610196366004610d0c565b61050f565b6007546101359060ff1681565b6101bb6101b6366004610cf3565b610591565b6040516100f391908151815260208083015190820152604080830151908201526060918201519181019190915260800190565b60045461017b906001600160a01b031681565b61020961064f565b6040516100f39190610d42565b61017b7f000000000000000000000000000000000000000000000000000000000000000081565b61010e6106a7565b61010e610253366004610d86565b6109d5565b61010e610266366004610d86565b610a75565b33610274610500565b6001600160a01b0316146102a35760405162461bcd60e51b815260040161029a90610db6565b60405180910390fd5b601e81116102f35760405162461bcd60e51b815260206004820181905260248201527f496e74657276616c206d7573742062652067726561746572207468616e203330604482015260640161029a565b600655565b33610301610500565b6001600160a01b0316146103275760405162461bcd60e51b815260040161029a90610db6565b6103316000610b11565b565b3361033c610500565b6001600160a01b0316146103625760405162461bcd60e51b815260040161029a90610db6565b60075460ff6101009091041615156001146103b05760405162461bcd60e51b815260206004820152600e60248201526d4e6f20524e472070656e64696e6760901b604482015260640161029a565b426009819055600580546000908152600b602052604080822060020193909355815481528290206003018390556007805461ffff191690555490517f5bf9d8b27998e78b585a28e26e6a0c590aa3414eca455e8ece034abdd226ff7691610421918590918252602082015260400190565b60405180910390a15050565b33610436610500565b6001600160a01b03161461045c5760405162461bcd60e51b815260040161029a90610db6565b60405163a9059cbb60e01b8152336004820152602481018290527f00000000000000000000000000000000000000000000000000000000000000006001600160a01b03169063a9059cbb90604401602060405180830381600087803b1580156104c457600080fd5b505af11580156104d8573d6000803e3d6000fd5b505050506040513d601f19601f820116820180604052508101906104fc9190610deb565b5050565b6000546001600160a01b031690565b336001600160a01b037f000000000000000000000000000000000000000000000000000000000000000016146105875760405162461bcd60e51b815260206004820152601f60248201527f4f6e6c7920565246436f6f7264696e61746f722063616e2066756c66696c6c00604482015260640161029a565b6104fc8282610362565b6105bc6040518060800160405280600081526020016000815260200160008152602001600081525090565b6004546001600160a01b0316331461060a5760405162461bcd60e51b8152602060048201526011602482015270436173696e6f2063616c6c73206f6e6c7960781b604482015260640161029a565b506000908152600b6020908152604091829020825160808101845281548152600182015492810192909252600281015492820192909252600390910154606082015290565b6060600a80548060200260200160405190810160405280929190818152602001828054801561069d57602002820191906000526020600020905b815481526020019060010190808311610689575b5050505050905090565b735fbdb2315678afecb367f032d93f642f64180aa330146107af576003546040516370a0823160e01b81526001600160a01b037f000000000000000000000000000000000000000000000000000000000000000016906370a0823190610711903090600401610d2e565b60206040518083038186803b15801561072957600080fd5b505afa15801561073d573d6000803e3d6000fd5b505050506040513d601f19601f820116820180604052508101906107619190610e0d565b10156107af5760405162461bcd60e51b815260206004820152601f60248201527f4e6f7420656e6f756768204c494e4b202d2066696c6c20636f6e747261637400604482015260640161029a565b6006546008546107bf9042610e3c565b10156108195760405162461bcd60e51b8152602060048201526024808201527f54696d6520666f72206e6578742067656c61746f206a6f62206e6f7420656c616044820152631c1cd95960e21b606482015260840161029a565b600754610100900460ff161561086c5760405162461bcd60e51b815260206004820152601860248201527729ba34b636103bb0b4ba34b733903337b91030902927239760411b604482015260640161029a565b60075460ff1615156001146108cf5760405162461bcd60e51b815260206004820152602360248201527f42657473206d7573742062652070726573656e7420746f207265717565737420604482015262524e4760e81b606482015260840161029a565b600580549060006108df83610e53565b90915550504260089081556007805461ff001916610100179055600554600a805460018181019092557fc65a7bb8d6351c1cf70c95a316cc6a92839c986682d98bc35f958f4883f9d2a8018290556000828152600b602052604081209283559254910155735fbdb2315678afecb367f032d93f642f64180aa330146109735761096c600254600354610b61565b9050610996565b507f12345678901234567890123456789012345678901234567890123456789012345b60055460408051918252602082018390527f99a13b3c5182b05d2f24a1eb87b0a8bd9d51ee732d8b2d7f20ce5ac547927447910160405180910390a150565b336109de610500565b6001600160a01b031614610a045760405162461bcd60e51b815260040161029a90610db6565b6001600160a01b038116610a695760405162461bcd60e51b815260206004820152602660248201527f4f776e61626c653a206e6577206f776e657220697320746865207a65726f206160448201526564647265737360d01b606482015260840161029a565b610a7281610b11565b50565b33610a7e610500565b6001600160a01b031614610aa45760405162461bcd60e51b815260040161029a90610db6565b6001600160a01b038116610ab757600080fd5b600480546001600160a01b038381166001600160a01b031983168117909355604080519190921680825260208201939093527fb0eb637f1a5e1b8ddafaa6074d6202289531f6471b4e93475080864681b2f3e49101610421565b600080546001600160a01b038381166001600160a01b0319831681178455604051919092169283917f8be0079c531659141344cd1fd0a4f28419497f9722a3daafe3b4186f6b6457e09190a35050565b60007f00000000000000000000000000000000000000000000000000000000000000006001600160a01b0316634000aea07f000000000000000000000000000000000000000000000000000000000000000084866000604051602001610bd1929190918252602082015260400190565b6040516020818303038152906040526040518463ffffffff1660e01b8152600401610bfe93929190610e6e565b602060405180830381600087803b158015610c1857600080fd5b505af1158015610c2c573d6000803e3d6000fd5b505050506040513d601f19601f82011682018060405250810190610c509190610deb565b50600083815260016020818152604080842054815180840189905280830186905230606082015260808082018390528351808303909101815260a09091019092528151918301919091209387905290829052610cab91610eda565b600085815260016020526040902055610ceb8482604080516020808201949094528082019290925280518083038201815260609092019052805191012090565b949350505050565b600060208284031215610d0557600080fd5b5035919050565b60008060408385031215610d1f57600080fd5b50508035926020909101359150565b6001600160a01b0391909116815260200190565b6020808252825182820181905260009190848201906040850190845b81811015610d7a57835183529284019291840191600101610d5e565b50909695505050505050565b600060208284031215610d9857600080fd5b81356001600160a01b0381168114610daf57600080fd5b9392505050565b6020808252818101527f4f776e61626c653a2063616c6c6572206973206e6f7420746865206f776e6572604082015260600190565b600060208284031215610dfd57600080fd5b81518015158114610daf57600080fd5b600060208284031215610e1f57600080fd5b5051919050565b634e487b7160e01b600052601160045260246000fd5b600082821015610e4e57610e4e610e26565b500390565b6000600019821415610e6757610e67610e26565b5060010190565b60018060a01b038416815260006020848184015260606040840152835180606085015260005b81811015610eb057858101830151858201608001528201610e94565b81811115610ec2576000608083870101525b50601f01601f19169290920160800195945050505050565b60008219821115610eed57610eed610e26565b50019056fea26469706673582212209bc9f6c38ee3f436feee1d2df991251c7e3421e125e4cf1261e308cfdd19f92964736f6c63430008090033",
  "linkReferences": {},
  "deployedLinkReferences": {}
}