{
  "_format": "hh-sol-artifact-1",
  "contractName": "RouletteTable",
  "sourceName": "contracts/RouletteTable.sol",
  "abi": [
    {
      "inputs": [
        {
          "internalType": "address",
          "name": "_operator",
          "type": "address"
        },
        {
          "internalType": "address",
          "name": "casinoAddress",
          "type": "address"
        },
        {
          "internalType": "address",
          "name": "rncAddress",
          "type": "address"
        }
      ],
      "stateMutability": "nonpayable",
      "type": "constructor"
    },
    {
      "inputs": [
        {
          "components": [
            {
              "internalType": "address",
              "name": "from",
              "type": "address"
            },
            {
              "internalType": "uint256",
              "name": "amount",
              "type": "uint256"
            },
            {
              "internalType": "uint8",
              "name": "betId",
              "type": "uint8"
            }
          ],
          "internalType": "struct CasinoLibrary.Bet[]",
          "name": "bets",
          "type": "tuple[]"
        }
      ],
      "name": "bet",
      "outputs": [],
      "stateMutability": "nonpayable",
      "type": "function"
    },
    {
      "inputs": [],
      "name": "casino",
      "outputs": [
        {
          "internalType": "contract IRouletteSpinCasino",
          "name": "",
          "type": "address"
        }
      ],
      "stateMutability": "view",
      "type": "function"
    },
    {
      "inputs": [
        {
          "internalType": "uint256",
          "name": "",
          "type": "uint256"
        }
      ],
      "name": "currentBets",
      "outputs": [
        {
          "internalType": "address",
          "name": "from",
          "type": "address"
        },
        {
          "internalType": "uint256",
          "name": "amount",
          "type": "uint256"
        },
        {
          "internalType": "uint8",
          "name": "betId",
          "type": "uint8"
        }
      ],
      "stateMutability": "view",
      "type": "function"
    },
    {
      "inputs": [
        {
          "internalType": "uint256",
          "name": "amount",
          "type": "uint256"
        }
      ],
      "name": "deposit",
      "outputs": [],
      "stateMutability": "nonpayable",
      "type": "function"
    },
    {
      "inputs": [],
      "name": "getBets",
      "outputs": [
        {
          "components": [
            {
              "internalType": "address",
              "name": "from",
              "type": "address"
            },
            {
              "internalType": "uint256",
              "name": "amount",
              "type": "uint256"
            },
            {
              "internalType": "uint8",
              "name": "betId",
              "type": "uint8"
            }
          ],
          "internalType": "struct CasinoLibrary.Bet[]",
          "name": "",
          "type": "tuple[]"
        }
      ],
      "stateMutability": "view",
      "type": "function"
    },
    {
      "inputs": [
        {
          "internalType": "uint256",
          "name": "_roundId",
          "type": "uint256"
        }
      ],
      "name": "getRoundResult",
      "outputs": [
        {
          "internalType": "uint256",
          "name": "",
          "type": "uint256"
        }
      ],
      "stateMutability": "view",
      "type": "function"
    },
    {
      "inputs": [],
      "name": "operator",
      "outputs": [
        {
          "internalType": "address",
          "name": "",
          "type": "address"
        }
      ],
      "stateMutability": "view",
      "type": "function"
    },
    {
      "inputs": [],
      "name": "tableStatus",
      "outputs": [
        {
          "internalType": "enum CasinoLibrary.TableStatus",
          "name": "",
          "type": "uint8"
        }
      ],
      "stateMutability": "view",
      "type": "function"
    }
  ],
  "bytecode": "0x608060405234801561001057600080fd5b50604051610de3380380610de383398101604081905261002f9161008d565b600080546001600160a01b039485166001600160a01b0319918216179091556009805493851693821693909317909255600880549190931691161790556100d0565b80516001600160a01b038116811461008857600080fd5b919050565b6000806000606084860312156100a257600080fd5b6100ab84610071565b92506100b960208501610071565b91506100c760408501610071565b90509250925092565b610d04806100df6000396000f3fe608060405234801561001057600080fd5b50600436106100785760003560e01c806302e28c701461007d5780633e597bd5146100a3578063570ca735146100b85780639403e8dd146100d8578063a6afd5fd146100eb578063b522000214610100578063b6b55f2514610121578063dcace36a14610134575b600080fd5b61009061008b366004610885565b610198565b6040519081526020015b60405180910390f35b6100b66100b1366004610963565b610270565b005b6000546100cb906001600160a01b031681565b60405161009a9190610a44565b6009546100cb906001600160a01b031681565b6100f3610795565b60405161009a9190610a58565b60005461011490600160a01b900460ff1681565b60405161009a9190610abd565b6100b661012f366004610885565b61081e565b610170610142366004610885565b6004602052600090815260409020805460018201546002909201546001600160a01b03909116919060ff1683565b604080516001600160a01b039094168452602084019290925260ff169082015260600161009a565b60085460405163885620bb60e01b81526004810183905260009182916001600160a01b039091169063885620bb9060240160206040518083038186803b1580156101e157600080fd5b505afa1580156101f5573d6000803e3d6000fd5b505050506040513d601f19601f820116820180604052508101906102199190610ae5565b90506025813060405160200161024692919091825260601b6001600160601b031916602082015260340190565b6040516020818303038152906040528051906020012060001c6102699190610afe565b9392505050565b600860009054906101000a90046001600160a01b03166001600160a01b03166329c88c1e6040518163ffffffff1660e01b8152600401600060405180830381600087803b1580156102c057600080fd5b505af11580156102d4573d6000803e3d6000fd5b505050506000805b82518160ff1610156105c0576000838260ff16815181106102ff576102ff610b20565b602002602001015160200151116103525760405162461bcd60e51b8152602060048201526012602482015271596f752063616e277420626574207a65726f60701b60448201526064015b60405180910390fd5b336001600160a01b0316838260ff168151811061037157610371610b20565b6020026020010151600001516001600160a01b0316146103e55760405162461bcd60e51b815260206004820152602960248201527f44696420796f75206a7573742074727920746f2062657420666f7220736f6d656044820152686f6e6520656c73653f60b81b6064820152608401610349565b600073__$ed604fe81edc1ea2d6472d444d8d6a3786$__63913d081f858460ff168151811061041657610416610b20565b6020026020010151604001516040518263ffffffff1660e01b8152600401610447919060ff91909116815260200190565b60006040518083038186803b15801561045f57600080fd5b505af4158015610473573d6000803e3d6000fd5b505050506040513d6000823e601f3d908101601f1916820160405261049b9190810190610b46565b9050600181602001516104ae9190610c39565b60ff16848360ff16815181106104c6576104c6610b20565b6020026020010151602001516104dc9190610c5c565b600760008282546104ed9190610c7b565b92505081905550838260ff168151811061050957610509610b20565b602002602001015160200151836105209190610c7b565b9250838260ff168151811061053757610537610b20565b6020026020010151600460006005600081548092919061055690610c93565b9091555081526020808201929092526040908101600020835181546001600160a01b0319166001600160a01b0390911617815591830151600183015591909101516002909101805460ff191660ff90921691909117905550806105b881610cae565b9150506102dc565b506009546040516370a0823160e01b81526001600160a01b03909116906370a08231906105f1903390600401610a44565b60206040518083038186803b15801561060957600080fd5b505afa15801561061d573d6000803e3d6000fd5b505050506040513d601f19601f820116820180604052508101906106419190610ae5565b81111561069b5760405162461bcd60e51b815260206004820152602260248201527f446f6e277420626574206d6f7265207468616e20796f752063616e206166666f6044820152611c9960f21b6064820152608401610349565b6009546040516370a0823160e01b81526001600160a01b03909116906370a08231906106cb903090600401610a44565b60206040518083038186803b1580156106e357600080fd5b505afa1580156106f7573d6000803e3d6000fd5b505050506040513d601f19601f8201168201806040525081019061071b9190610ae5565b600754111561077a5760405162461bcd60e51b815260206004820152602560248201527f57652063616e2774206166666f726420746f2070617920796f7520696620796f6044820152643a903bb4b760d91b6064820152608401610349565b806006600082825461078c9190610c7b565b90915550505050565b60608060005b60055481101561081857600081815260046020908152604091829020825160608101845281546001600160a01b031681526001820154928101929092526002015460ff169181019190915282518390839081106107fa576107fa610b20565b6020026020010181905250808061081090610c93565b91505061079b565b50919050565b6009546040516311f9fbc960e21b8152336004820152602481018390526001600160a01b03909116906347e7ef2490604401600060405180830381600087803b15801561086a57600080fd5b505af115801561087e573d6000803e3d6000fd5b5050505050565b60006020828403121561089757600080fd5b5035919050565b634e487b7160e01b600052604160045260246000fd5b604051606081016001600160401b03811182821017156108d6576108d661089e565b60405290565b604080519081016001600160401b03811182821017156108d6576108d661089e565b604051601f8201601f191681016001600160401b03811182821017156109265761092661089e565b604052919050565b60006001600160401b038211156109475761094761089e565b5060051b60200190565b60ff8116811461096057600080fd5b50565b6000602080838503121561097657600080fd5b82356001600160401b0381111561098c57600080fd5b8301601f8101851361099d57600080fd5b80356109b06109ab8261092e565b6108fe565b818152606091820283018401918482019190888411156109cf57600080fd5b938501935b83851015610a385780858a0312156109ec5760008081fd5b6109f46108b4565b85356001600160a01b0381168114610a0c5760008081fd5b81528587013587820152604080870135610a2581610951565b90820152835293840193918501916109d4565b50979650505050505050565b6001600160a01b0391909116815260200190565b602080825282518282018190526000919060409081850190868401855b82811015610ab057815180516001600160a01b03168552868101518786015285015160ff168585015260609093019290850190600101610a75565b5091979650505050505050565b6020810160028310610adf57634e487b7160e01b600052602160045260246000fd5b91905290565b600060208284031215610af757600080fd5b5051919050565b600082610b1b57634e487b7160e01b600052601260045260246000fd5b500690565b634e487b7160e01b600052603260045260246000fd5b8051610b4181610951565b919050565b60006020808385031215610b5957600080fd5b82516001600160401b0380821115610b7057600080fd5b9084019060408287031215610b8457600080fd5b610b8c6108dc565b825182811115610b9b57600080fd5b83019150601f82018713610bae57600080fd5b8151610bbc6109ab8261092e565b81815260059190911b83018501908581019089831115610bdb57600080fd5b938601935b82851015610c02578451610bf381610951565b82529386019390860190610be0565b835250610c129050838501610b36565b848201528094505050505092915050565b634e487b7160e01b600052601160045260246000fd5b600060ff821660ff841680821015610c5357610c53610c23565b90039392505050565b6000816000190483118215151615610c7657610c76610c23565b500290565b60008219821115610c8e57610c8e610c23565b500190565b6000600019821415610ca757610ca7610c23565b5060010190565b600060ff821660ff811415610cc557610cc5610c23565b6001019291505056fea2646970667358221220f467b89450a7ce1512049fec49e669bdea33ef4217305b078089b77d1fbfefaf64736f6c63430008090033",
  "linkReferences": {
    "contracts/CasinoLibrary.sol": {
      "CasinoLibrary": [
        {
          "length": 20,
          "start": 1224
        }
      ]
    }
  },
  "deployedLinkReferences": {
    "contracts/CasinoLibrary.sol": {
      "CasinoLibrary": [
        {
          "length": 20,
          "start": 1001
        }
      ]
    }
  }
}