{
  "_format": "hh-sol-artifact-1",
  "contractName": "RouletteSpinCasino",
  "sourceName": "contracts/RouletteSpinCasino.sol",
  "abi": [
    {
      "inputs": [],
      "stateMutability": "nonpayable",
      "type": "constructor"
    },
    {
      "anonymous": false,
      "inputs": [
        {
          "indexed": true,
          "internalType": "address",
          "name": "owner",
          "type": "address"
        },
        {
          "indexed": true,
          "internalType": "address",
          "name": "spender",
          "type": "address"
        },
        {
          "indexed": false,
          "internalType": "uint256",
          "name": "value",
          "type": "uint256"
        }
      ],
      "name": "Approval",
      "type": "event"
    },
    {
      "anonymous": false,
      "inputs": [
        {
          "indexed": true,
          "internalType": "address",
          "name": "previousOwner",
          "type": "address"
        },
        {
          "indexed": true,
          "internalType": "address",
          "name": "newOwner",
          "type": "address"
        }
      ],
      "name": "OwnershipTransferred",
      "type": "event"
    },
    {
      "anonymous": false,
      "inputs": [
        {
          "indexed": true,
          "internalType": "address",
          "name": "from",
          "type": "address"
        },
        {
          "indexed": true,
          "internalType": "address",
          "name": "to",
          "type": "address"
        },
        {
          "indexed": false,
          "internalType": "uint256",
          "name": "value",
          "type": "uint256"
        }
      ],
      "name": "Transfer",
      "type": "event"
    },
    {
      "inputs": [
        {
          "internalType": "address",
          "name": "owner",
          "type": "address"
        },
        {
          "internalType": "address",
          "name": "spender",
          "type": "address"
        }
      ],
      "name": "allowance",
      "outputs": [
        {
          "internalType": "uint256",
          "name": "",
          "type": "uint256"
        }
      ],
      "stateMutability": "view",
      "type": "function"
    },
    {
      "inputs": [
        {
          "internalType": "address",
          "name": "spender",
          "type": "address"
        },
        {
          "internalType": "uint256",
          "name": "amount",
          "type": "uint256"
        }
      ],
      "name": "approve",
      "outputs": [
        {
          "internalType": "bool",
          "name": "",
          "type": "bool"
        }
      ],
      "stateMutability": "nonpayable",
      "type": "function"
    },
    {
      "inputs": [
        {
          "internalType": "address",
          "name": "account",
          "type": "address"
        }
      ],
      "name": "balanceOf",
      "outputs": [
        {
          "internalType": "uint256",
          "name": "",
          "type": "uint256"
        }
      ],
      "stateMutability": "view",
      "type": "function"
    },
    {
      "inputs": [
        {
          "internalType": "uint256",
          "name": "amount",
          "type": "uint256"
        }
      ],
      "name": "burn",
      "outputs": [],
      "stateMutability": "nonpayable",
      "type": "function"
    },
    {
      "inputs": [
        {
          "internalType": "address",
          "name": "account",
          "type": "address"
        },
        {
          "internalType": "uint256",
          "name": "amount",
          "type": "uint256"
        }
      ],
      "name": "burnFrom",
      "outputs": [],
      "stateMutability": "nonpayable",
      "type": "function"
    },
    {
      "inputs": [],
      "name": "decimals",
      "outputs": [
        {
          "internalType": "uint8",
          "name": "",
          "type": "uint8"
        }
      ],
      "stateMutability": "view",
      "type": "function"
    },
    {
      "inputs": [
        {
          "internalType": "address",
          "name": "spender",
          "type": "address"
        },
        {
          "internalType": "uint256",
          "name": "subtractedValue",
          "type": "uint256"
        }
      ],
      "name": "decreaseAllowance",
      "outputs": [
        {
          "internalType": "bool",
          "name": "",
          "type": "bool"
        }
      ],
      "stateMutability": "nonpayable",
      "type": "function"
    },
    {
      "inputs": [
        {
          "internalType": "address",
          "name": "fromPlayer",
          "type": "address"
        },
        {
          "internalType": "uint256",
          "name": "amount",
          "type": "uint256"
        }
      ],
      "name": "deposit",
      "outputs": [],
      "stateMutability": "nonpayable",
      "type": "function"
    },
    {
      "inputs": [
        {
          "internalType": "address",
          "name": "toTable",
          "type": "address"
        },
        {
          "internalType": "uint256",
          "name": "amount",
          "type": "uint256"
        }
      ],
      "name": "fund",
      "outputs": [],
      "stateMutability": "nonpayable",
      "type": "function"
    },
    {
      "inputs": [],
      "name": "getTables",
      "outputs": [
        {
          "internalType": "address[]",
          "name": "",
          "type": "address[]"
        }
      ],
      "stateMutability": "view",
      "type": "function"
    },
    {
      "inputs": [
        {
          "internalType": "address",
          "name": "spender",
          "type": "address"
        },
        {
          "internalType": "uint256",
          "name": "addedValue",
          "type": "uint256"
        }
      ],
      "name": "increaseAllowance",
      "outputs": [
        {
          "internalType": "bool",
          "name": "",
          "type": "bool"
        }
      ],
      "stateMutability": "nonpayable",
      "type": "function"
    },
    {
      "inputs": [
        {
          "internalType": "address",
          "name": "to",
          "type": "address"
        },
        {
          "internalType": "uint256",
          "name": "amount",
          "type": "uint256"
        }
      ],
      "name": "mint",
      "outputs": [],
      "stateMutability": "nonpayable",
      "type": "function"
    },
    {
      "inputs": [
        {
          "internalType": "uint256",
          "name": "initialAmount",
          "type": "uint256"
        }
      ],
      "name": "mintTable",
      "outputs": [
        {
          "internalType": "address",
          "name": "",
          "type": "address"
        }
      ],
      "stateMutability": "nonpayable",
      "type": "function"
    },
    {
      "inputs": [],
      "name": "name",
      "outputs": [
        {
          "internalType": "string",
          "name": "",
          "type": "string"
        }
      ],
      "stateMutability": "view",
      "type": "function"
    },
    {
      "inputs": [],
      "name": "owner",
      "outputs": [
        {
          "internalType": "address",
          "name": "",
          "type": "address"
        }
      ],
      "stateMutability": "view",
      "type": "function"
    },
    {
      "inputs": [],
      "name": "publicMint",
      "outputs": [],
      "stateMutability": "nonpayable",
      "type": "function"
    },
    {
      "inputs": [],
      "name": "renounceOwnership",
      "outputs": [],
      "stateMutability": "nonpayable",
      "type": "function"
    },
    {
      "inputs": [],
      "name": "symbol",
      "outputs": [
        {
          "internalType": "string",
          "name": "",
          "type": "string"
        }
      ],
      "stateMutability": "view",
      "type": "function"
    },
    {
      "inputs": [],
      "name": "totalSupply",
      "outputs": [
        {
          "internalType": "uint256",
          "name": "",
          "type": "uint256"
        }
      ],
      "stateMutability": "view",
      "type": "function"
    },
    {
      "inputs": [
        {
          "internalType": "address",
          "name": "recipient",
          "type": "address"
        },
        {
          "internalType": "uint256",
          "name": "amount",
          "type": "uint256"
        }
      ],
      "name": "transfer",
      "outputs": [
        {
          "internalType": "bool",
          "name": "",
          "type": "bool"
        }
      ],
      "stateMutability": "nonpayable",
      "type": "function"
    },
    {
      "inputs": [
        {
          "internalType": "address",
          "name": "sender",
          "type": "address"
        },
        {
          "internalType": "address",
          "name": "recipient",
          "type": "address"
        },
        {
          "internalType": "uint256",
          "name": "amount",
          "type": "uint256"
        }
      ],
      "name": "transferFrom",
      "outputs": [
        {
          "internalType": "bool",
          "name": "",
          "type": "bool"
        }
      ],
      "stateMutability": "nonpayable",
      "type": "function"
    },
    {
      "inputs": [
        {
          "internalType": "address",
          "name": "newOwner",
          "type": "address"
        }
      ],
      "name": "transferOwnership",
      "outputs": [],
      "stateMutability": "nonpayable",
      "type": "function"
    }
  ],
  "bytecode": "0x60806040523480156200001157600080fd5b50604080518082018252600d81526c2937bab632ba3a329029b834b760991b6020808301918252835180850190945260048452632929a82760e11b9084015281519192916200006391600391620000f2565b50805162000079906004906020840190620000f2565b50505062000096620000906200009c60201b60201c565b620000a0565b620001d5565b3390565b600580546001600160a01b038381166001600160a01b0319831681179093556040519116919082907f8be0079c531659141344cd1fd0a4f28419497f9722a3daafe3b4186f6b6457e090600090a35050565b828054620001009062000198565b90600052602060002090601f0160209004810192826200012457600085556200016f565b82601f106200013f57805160ff19168380011785556200016f565b828001600101855582156200016f579182015b828111156200016f57825182559160200191906001019062000152565b506200017d92915062000181565b5090565b5b808211156200017d576000815560010162000182565b600181811c90821680620001ad57607f821691505b60208210811415620001cf57634e487b7160e01b600052602260045260246000fd5b50919050565b61355380620001e56000396000f3fe60806040523480156200001157600080fd5b50600436106200012a5760003560e01c806306fdde03146200012f578063095ea7b3146200015157806318160ddd146200017957806323b872dd146200018c57806326092b8314620001a357806328343c3414620001af578063313ce56714620001c85780633950935114620001d857806340c10f1914620001ef57806342966c68146200020657806347e7ef24146200021d57806370a082311462000234578063715018a6146200026057806374eac9d2146200026a57806379cc6790146200029a5780637b1837de14620002b15780638da5cb5b14620002c857806395d89b4114620002d2578063a457c2d714620002dc578063a9059cbb14620002f3578063dd62ed3e146200030a578063f2fde38b1462000346575b600080fd5b620001396200035d565b604051620001489190620011bb565b60405180910390f35b620001686200016236600462001229565b620003f7565b604051901515815260200162000148565b6002545b60405190815260200162000148565b620001686200019d36600462001258565b6200040f565b620001ad620004c3565b005b620001b9620004d3565b6040516200014891906200129e565b6040516012815260200162000148565b62000168620001e936600462001229565b62000536565b620001ad6200020036600462001229565b62000576565b620001ad62000217366004620012ed565b620005ba565b620001ad6200022e36600462001229565b620005c9565b6200017d6200024536600462001307565b6001600160a01b031660009081526020819052604090205490565b620001ad6200073d565b620002816200027b366004620012ed565b6200077d565b6040516001600160a01b03909116815260200162000148565b620001ad620002ab36600462001229565b62000904565b620001ad620002c236600462001229565b6200098d565b6200028162000ae3565b6200013962000af2565b62000168620002ed36600462001229565b62000b03565b620001686200030436600462001229565b62000ba0565b6200017d6200031b3660046200132e565b6001600160a01b03918216600090815260016020908152604080832093909416825291909152205490565b620001ad6200035736600462001307565b62000baf565b6060600380546200036e906200136c565b80601f01602080910402602001604051908101604052809291908181526020018280546200039c906200136c565b8015620003ed5780601f10620003c157610100808354040283529160200191620003ed565b820191906000526020600020905b815481529060010190602001808311620003cf57829003601f168201915b5050505050905090565b60006200040633848462000c55565b50600192915050565b60006200041e84848462000d7d565b6001600160a01b038416600090815260016020908152604080832033845290915290205482811015620004a95760405162461bcd60e51b815260206004820152602860248201527f45524332303a207472616e7366657220616d6f756e74206578636565647320616044820152676c6c6f77616e636560c01b60648201526084015b60405180910390fd5b620004b8853385840362000c55565b506001949350505050565b620004d1336101f462000f44565b565b60606008805480602002602001604051908101604052809291908181526020018280548015620003ed57602002820191906000526020600020905b81546001600160a01b031681526001909101906020018083116200050e575050505050905090565b3360008181526001602090815260408083206001600160a01b038716845290915281205490916200040691859062000570908690620013bf565b62000c55565b336200058162000ae3565b6001600160a01b031614620005aa5760405162461bcd60e51b8152600401620004a090620013da565b620005b6828262000f44565b5050565b620005c6338262001018565b50565b3360009081526007602052604090205460ff166200063c5760405162461bcd60e51b815260206004820152602960248201527f4f6e6c7920726f756c65747465207461626c65732063616e2063616c6c2074686044820152681a5cc81b595d1a1bd960ba1b6064820152608401620004a0565b6000339050336001600160a01b0316816001600160a01b031663570ca7356040518163ffffffff1660e01b815260040160206040518083038186803b1580156200068557600080fd5b505afa1580156200069a573d6000803e3d6000fd5b505050506040513d601f19601f82011682018060405250810190620006c091906200140f565b6001600160a01b0316146200072b5760405162461bcd60e51b815260206004820152602a60248201527f596f752073686f756c646e27742066756e64206f746865722070656f706c652760448201526939903a30b1363297171760b11b6064820152608401620004a0565b6200073883338462000d7d565b505050565b336200074862000ae3565b6001600160a01b031614620007715760405162461bcd60e51b8152600401620004a090620013da565b620004d160006200115b565b6000808211620007e35760405162461bcd60e51b815260206004820152602a60248201527f596f75206e65656420746f207374616b6520736f6d652066756e647320696e2060448201526974686174207461626c6560b01b6064820152608401620004a0565b60003330604051620007f590620011ad565b6001600160a01b03928316815291166020820152604001604051809103906000f08015801562000829573d6000803e3d6000fd5b509050806200083a33828662000d7d565b6001600160a01b03818116600081815260076020526040808220805460ff1916600190811790915560088054918201815583527ff3f7a9fe364faab93b216da50a3214154f22a0a2b415b23a84c8169e8b636ee30180546001600160a01b03191690931790925590516340c10f1960e01b81523360048201526024810191909152908316906340c10f1990604401600060405180830381600087803b158015620008e357600080fd5b505af1158015620008f8573d6000803e3d6000fd5b50929695505050505050565b60006200091283336200031b565b905081811015620009725760405162461bcd60e51b8152602060048201526024808201527f45524332303a206275726e20616d6f756e74206578636565647320616c6c6f77604482015263616e636560e01b6064820152608401620004a0565b62000981833384840362000c55565b62000738838362001018565b6001600160a01b03821660009081526007602052604090205460ff1662000a025760405162461bcd60e51b815260206004820152602260248201527f4f6e6c7920726f756c65747465207461626c65732063616e2062652066756e64604482015261195960f21b6064820152608401620004a0565b6000829050336001600160a01b0316816001600160a01b031663570ca7356040518163ffffffff1660e01b815260040160206040518083038186803b15801562000a4b57600080fd5b505afa15801562000a60573d6000803e3d6000fd5b505050506040513d601f19601f8201168201806040525081019062000a8691906200140f565b6001600160a01b03161462000ad65760405162461bcd60e51b8152602060048201526015602482015274546861742773206e6f7420796f7572207461626c6560581b6044820152606401620004a0565b6200073833848462000d7d565b6005546001600160a01b031690565b6060600480546200036e906200136c565b3360009081526001602090815260408083206001600160a01b03861684529091528120548281101562000b875760405162461bcd60e51b815260206004820152602560248201527f45524332303a2064656372656173656420616c6c6f77616e63652062656c6f77604482015264207a65726f60d81b6064820152608401620004a0565b62000b96338585840362000c55565b5060019392505050565b60006200040633848462000d7d565b3362000bba62000ae3565b6001600160a01b03161462000be35760405162461bcd60e51b8152600401620004a090620013da565b6001600160a01b03811662000c4a5760405162461bcd60e51b815260206004820152602660248201527f4f776e61626c653a206e6577206f776e657220697320746865207a65726f206160448201526564647265737360d01b6064820152608401620004a0565b620005c6816200115b565b6001600160a01b03831662000cb95760405162461bcd60e51b8152602060048201526024808201527f45524332303a20617070726f76652066726f6d20746865207a65726f206164646044820152637265737360e01b6064820152608401620004a0565b6001600160a01b03821662000d1c5760405162461bcd60e51b815260206004820152602260248201527f45524332303a20617070726f766520746f20746865207a65726f206164647265604482015261737360f01b6064820152608401620004a0565b6001600160a01b0383811660008181526001602090815260408083209487168084529482529182902085905590518481527f8c5be1e5ebec7d5bd14f71427d1e84f3dd0314c0f7b2291e5b200ac8c7c3b925910160405180910390a3505050565b6001600160a01b03831662000de35760405162461bcd60e51b815260206004820152602560248201527f45524332303a207472616e736665722066726f6d20746865207a65726f206164604482015264647265737360d81b6064820152608401620004a0565b6001600160a01b03821662000e475760405162461bcd60e51b815260206004820152602360248201527f45524332303a207472616e7366657220746f20746865207a65726f206164647260448201526265737360e81b6064820152608401620004a0565b6001600160a01b0383166000908152602081905260409020548181101562000ec15760405162461bcd60e51b815260206004820152602660248201527f45524332303a207472616e7366657220616d6f756e7420657863656564732062604482015265616c616e636560d01b6064820152608401620004a0565b6001600160a01b0380851660009081526020819052604080822085850390559185168152908120805484929062000efa908490620013bf565b92505081905550826001600160a01b0316846001600160a01b0316600080516020620034fe8339815191528460405162000f3691815260200190565b60405180910390a350505050565b6001600160a01b03821662000f9c5760405162461bcd60e51b815260206004820152601f60248201527f45524332303a206d696e7420746f20746865207a65726f2061646472657373006044820152606401620004a0565b806002600082825462000fb09190620013bf565b90915550506001600160a01b0382166000908152602081905260408120805483929062000fdf908490620013bf565b90915550506040518181526001600160a01b03831690600090600080516020620034fe8339815191529060200160405180910390a35050565b6001600160a01b0382166200107a5760405162461bcd60e51b815260206004820152602160248201527f45524332303a206275726e2066726f6d20746865207a65726f206164647265736044820152607360f81b6064820152608401620004a0565b6001600160a01b03821660009081526020819052604090205481811015620010f05760405162461bcd60e51b815260206004820152602260248201527f45524332303a206275726e20616d6f756e7420657863656564732062616c616e604482015261636560f01b6064820152608401620004a0565b6001600160a01b0383166000908152602081905260408120838303905560028054849290620011219084906200142f565b90915550506040518281526000906001600160a01b03851690600080516020620034fe8339815191529060200160405180910390a3505050565b600580546001600160a01b038381166001600160a01b0319831681179093556040519116919082907f8be0079c531659141344cd1fd0a4f28419497f9722a3daafe3b4186f6b6457e090600090a35050565b6120b4806200144a83390190565b600060208083528351808285015260005b81811015620011ea57858101830151858201604001528201620011cc565b81811115620011fd576000604083870101525b50601f01601f1916929092016040019392505050565b6001600160a01b0381168114620005c657600080fd5b600080604083850312156200123d57600080fd5b82356200124a8162001213565b946020939093013593505050565b6000806000606084860312156200126e57600080fd5b83356200127b8162001213565b925060208401356200128d8162001213565b929592945050506040919091013590565b6020808252825182820181905260009190848201906040850190845b81811015620012e15783516001600160a01b031683529284019291840191600101620012ba565b50909695505050505050565b6000602082840312156200130057600080fd5b5035919050565b6000602082840312156200131a57600080fd5b8135620013278162001213565b9392505050565b600080604083850312156200134257600080fd5b82356200134f8162001213565b91506020830135620013618162001213565b809150509250929050565b600181811c908216806200138157607f821691505b60208210811415620013a357634e487b7160e01b600052602260045260246000fd5b50919050565b634e487b7160e01b600052601160045260246000fd5b60008219821115620013d557620013d5620013a9565b500190565b6020808252818101527f4f776e61626c653a2063616c6c6572206973206e6f7420746865206f776e6572604082015260600190565b6000602082840312156200142257600080fd5b8151620013278162001213565b600082821015620014445762001444620013a9565b50039056fe6080604052600060085560006009556000600a553480156200002057600080fd5b50604051620020b4380380620020b48339810160408190526200004391620001a7565b604080518082018252600e81526d526f756c65747465205461626c6560901b6020808301918252835180850190945260048452631495109360e21b9084015281519192916200009591600091620000e4565b508051620000ab906001906020840190620000e4565b5050600680546001600160a01b039485166001600160a01b031991821617909155600b805493909416921691909117909155506200021c565b828054620000f290620001df565b90600052602060002090601f01602090048101928262000116576000855562000161565b82601f106200013157805160ff191683800117855562000161565b8280016001018555821562000161579182015b828111156200016157825182559160200191906001019062000144565b506200016f92915062000173565b5090565b5b808211156200016f576000815560010162000174565b80516001600160a01b0381168114620001a257600080fd5b919050565b60008060408385031215620001bb57600080fd5b620001c6836200018a565b9150620001d6602084016200018a565b90509250929050565b600181811c90821680620001f457607f821691505b602082108114156200021657634e487b7160e01b600052602260045260246000fd5b50919050565b611e88806200022c6000396000f3fe608060405234801561001057600080fd5b50600436106101125760003560e01c806301ffc9a71461011757806306fdde031461013f578063081812fc14610154578063095ea7b31461017457806323b872dd146101895780633e597bd51461019c57806340c10f19146101af57806342842e0e146101c257806342966c68146101d5578063570ca735146101e85780636352211e146101fb57806370a082311461020e5780639403e8dd1461022f57806395d89b4114610242578063a22cb4651461024a578063a6afd5fd1461025d578063b522000214610265578063b6b55f2514610286578063b88d4fde14610299578063c87b56dd146102ac578063dcace36a146102bf578063e985e9c514610323575b600080fd5b61012a610125366004611662565b610336565b60405190151581526020015b60405180910390f35b610147610388565b60405161013691906116d7565b6101676101623660046116ea565b61041a565b6040516101369190611703565b610187610182366004611733565b6104a7565b005b61018761019736600461175d565b6105b8565b6101876101aa36600461185b565b6105ea565b6101876101bd366004611733565b610b01565b6101876101d036600461175d565b610b7b565b6101876101e33660046116ea565b610b96565b600654610167906001600160a01b031681565b6101676102093660046116ea565b610c10565b61022161021c36600461192d565b610c87565b604051908152602001610136565b600b54610167906001600160a01b031681565b610147610d0e565b610187610258366004611948565b610d1d565b600954610221565b60065461027990600160a01b900460ff1681565b604051610136919061199a565b6101876102943660046116ea565b610dde565b6101876102a73660046119c2565b610e45565b6101476102ba3660046116ea565b610e7d565b6102fb6102cd3660046116ea565b6007602052600090815260409020805460018201546002909201546001600160a01b03909116919060ff1683565b604080516001600160a01b039094168452602084019290925260ff1690820152606001610136565b61012a610331366004611a81565b610f55565b60006001600160e01b031982166380ac58cd60e01b148061036757506001600160e01b03198216635b5e139f60e01b145b8061038257506301ffc9a760e01b6001600160e01b03198316145b92915050565b60606000805461039790611ab4565b80601f01602080910402602001604051908101604052809291908181526020018280546103c390611ab4565b80156104105780601f106103e557610100808354040283529160200191610410565b820191906000526020600020905b8154815290600101906020018083116103f357829003601f168201915b5050505050905090565b600061042582610f83565b61048b5760405162461bcd60e51b815260206004820152602c60248201527f4552433732313a20617070726f76656420717565727920666f72206e6f6e657860448201526b34b9ba32b73a103a37b5b2b760a11b60648201526084015b60405180910390fd5b506000908152600460205260409020546001600160a01b031690565b60006104b282610c10565b9050806001600160a01b0316836001600160a01b031614156105205760405162461bcd60e51b815260206004820152602160248201527f4552433732313a20617070726f76616c20746f2063757272656e74206f776e656044820152603960f91b6064820152608401610482565b336001600160a01b038216148061053c575061053c8133610f55565b6105a95760405162461bcd60e51b815260206004820152603860248201527f4552433732313a20617070726f76652063616c6c6572206973206e6f74206f776044820152771b995c881b9bdc88185c1c1c9bdd995908199bdc88185b1b60421b6064820152608401610482565b6105b38383610fa0565b505050565b6105c3335b8261100e565b6105df5760405162461bcd60e51b815260040161048290611aef565b6105b38383836110d8565b6000600654600160a01b900460ff16600181111561060a5761060a611984565b146106495760405162461bcd60e51b815260206004820152600f60248201526e5269656e206e6520766120706c757360881b6044820152606401610482565b6000805b82518160ff16101561092c576000838260ff168151811061067057610670611b40565b602002602001015160200151116106be5760405162461bcd60e51b8152602060048201526012602482015271596f752063616e277420626574207a65726f60701b6044820152606401610482565b336001600160a01b0316838260ff16815181106106dd576106dd611b40565b6020026020010151600001516001600160a01b0316146107515760405162461bcd60e51b815260206004820152602960248201527f44696420796f75206a7573742074727920746f2062657420666f7220736f6d656044820152686f6e6520656c73653f60b81b6064820152608401610482565b600073__$ed604fe81edc1ea2d6472d444d8d6a3786$__63913d081f858460ff168151811061078257610782611b40565b6020026020010151604001516040518263ffffffff1660e01b81526004016107b3919060ff91909116815260200190565b60006040518083038186803b1580156107cb57600080fd5b505af41580156107df573d6000803e3d6000fd5b505050506040513d6000823e601f3d908101601f191682016040526108079190810190611b61565b90506001816020015161081a9190611c54565b60ff16848360ff168151811061083257610832611b40565b6020026020010151602001516108489190611c77565b600a60008282546108599190611c96565b92505081905550838260ff168151811061087557610875611b40565b6020026020010151602001518361088c9190611c96565b9250838260ff16815181106108a3576108a3611b40565b602002602001015160076000600860008154809291906108c290611cae565b9091555081526020808201929092526040908101600020835181546001600160a01b0319166001600160a01b0390911617815591830151600183015591909101516002909101805460ff191660ff909216919091179055508061092481611cc9565b91505061064d565b50600b546040516370a0823160e01b81526001600160a01b03909116906370a082319061095d903390600401611703565b60206040518083038186803b15801561097557600080fd5b505afa158015610989573d6000803e3d6000fd5b505050506040513d601f19601f820116820180604052508101906109ad9190611ce9565b811115610a075760405162461bcd60e51b815260206004820152602260248201527f446f6e277420626574206d6f7265207468616e20796f752063616e206166666f6044820152611c9960f21b6064820152608401610482565b600b546040516370a0823160e01b81526001600160a01b03909116906370a0823190610a37903090600401611703565b60206040518083038186803b158015610a4f57600080fd5b505afa158015610a63573d6000803e3d6000fd5b505050506040513d601f19601f82011682018060405250810190610a879190611ce9565b600a541115610ae65760405162461bcd60e51b815260206004820152602560248201527f57652063616e2774206166666f726420746f2070617920796f7520696620796f6044820152643a903bb4b760d91b6064820152608401610482565b8060096000828254610af89190611c96565b90915550505050565b600b546001600160a01b03163314610b6d5760405162461bcd60e51b815260206004820152602960248201527f4f6e6c792074686520636173696e6f2063616e206d696e74206120726f756c65604482015268747465207461626c6560b81b6064820152608401610482565b610b778282611266565b5050565b6105b383838360405180602001604052806000815250610e45565b610b9f336105bd565b610c045760405162461bcd60e51b815260206004820152603060248201527f4552433732314275726e61626c653a2063616c6c6572206973206e6f74206f7760448201526f1b995c881b9bdc88185c1c1c9bdd995960821b6064820152608401610482565b610c0d81611386565b50565b6000818152600260205260408120546001600160a01b0316806103825760405162461bcd60e51b815260206004820152602960248201527f4552433732313a206f776e657220717565727920666f72206e6f6e657869737460448201526832b73a103a37b5b2b760b91b6064820152608401610482565b60006001600160a01b038216610cf25760405162461bcd60e51b815260206004820152602a60248201527f4552433732313a2062616c616e636520717565727920666f7220746865207a65604482015269726f206164647265737360b01b6064820152608401610482565b506001600160a01b031660009081526003602052604090205490565b60606001805461039790611ab4565b6001600160a01b038216331415610d725760405162461bcd60e51b815260206004820152601960248201527822a9219b99189d1030b8383937bb32903a379031b0b63632b960391b6044820152606401610482565b3360008181526005602090815260408083206001600160a01b03871680855290835292819020805460ff191686151590811790915590519081529192917f17307eab39ab6107e8899845ad3d59bd9653f200f220920489ca2b5937696c31910160405180910390a35050565b600b546040516311f9fbc960e21b8152306004820152602481018390526001600160a01b03909116906347e7ef2490604401600060405180830381600087803b158015610e2a57600080fd5b505af1158015610e3e573d6000803e3d6000fd5b5050505050565b610e4f338361100e565b610e6b5760405162461bcd60e51b815260040161048290611aef565b610e778484848461140f565b50505050565b6060610e8882610f83565b610eec5760405162461bcd60e51b815260206004820152602f60248201527f4552433732314d657461646174613a2055524920717565727920666f72206e6f60448201526e3732bc34b9ba32b73a103a37b5b2b760891b6064820152608401610482565b6000610f0360408051602081019091526000815290565b90506000815111610f235760405180602001604052806000815250610f4e565b80610f2d84611442565b604051602001610f3e929190611d02565b6040516020818303038152906040525b9392505050565b6001600160a01b03918216600090815260056020908152604080832093909416825291909152205460ff1690565b6000908152600260205260409020546001600160a01b0316151590565b600081815260046020526040902080546001600160a01b0319166001600160a01b0384169081179091558190610fd582610c10565b6001600160a01b03167f8c5be1e5ebec7d5bd14f71427d1e84f3dd0314c0f7b2291e5b200ac8c7c3b92560405160405180910390a45050565b600061101982610f83565b61107a5760405162461bcd60e51b815260206004820152602c60248201527f4552433732313a206f70657261746f7220717565727920666f72206e6f6e657860448201526b34b9ba32b73a103a37b5b2b760a11b6064820152608401610482565b600061108583610c10565b9050806001600160a01b0316846001600160a01b031614806110c05750836001600160a01b03166110b58461041a565b6001600160a01b0316145b806110d057506110d08185610f55565b949350505050565b826001600160a01b03166110eb82610c10565b6001600160a01b0316146111535760405162461bcd60e51b815260206004820152602960248201527f4552433732313a207472616e73666572206f6620746f6b656e2074686174206960448201526839903737ba1037bbb760b91b6064820152608401610482565b6001600160a01b0382166111b55760405162461bcd60e51b8152602060048201526024808201527f4552433732313a207472616e7366657220746f20746865207a65726f206164646044820152637265737360e01b6064820152608401610482565b6111c0600082610fa0565b6001600160a01b03831660009081526003602052604081208054600192906111e9908490611d31565b90915550506001600160a01b0382166000908152600360205260408120805460019290611217908490611c96565b909155505060008181526002602052604080822080546001600160a01b0319166001600160a01b038681169182179092559151849391871691600080516020611e3383398151915291a4505050565b6001600160a01b0382166112bc5760405162461bcd60e51b815260206004820181905260248201527f4552433732313a206d696e7420746f20746865207a65726f20616464726573736044820152606401610482565b6112c581610f83565b156113115760405162461bcd60e51b815260206004820152601c60248201527b115490cdcc8c4e881d1bdad95b88185b1c9958591e481b5a5b9d195960221b6044820152606401610482565b6001600160a01b038216600090815260036020526040812080546001929061133a908490611c96565b909155505060008181526002602052604080822080546001600160a01b0319166001600160a01b0386169081179091559051839290600080516020611e33833981519152908290a45050565b600061139182610c10565b905061139e600083610fa0565b6001600160a01b03811660009081526003602052604081208054600192906113c7908490611d31565b909155505060008281526002602052604080822080546001600160a01b0319169055518391906001600160a01b03841690600080516020611e33833981519152908390a45050565b61141a8484846110d8565b6114268484848461153f565b610e775760405162461bcd60e51b815260040161048290611d48565b6060816114665750506040805180820190915260018152600360fc1b602082015290565b8160005b8115611490578061147a81611cae565b91506114899050600a83611db0565b915061146a565b6000816001600160401b038111156114aa576114aa611799565b6040519080825280601f01601f1916602001820160405280156114d4576020820181803683370190505b5090505b84156110d0576114e9600183611d31565b91506114f6600a86611dc4565b611501906030611c96565b60f81b81838151811061151657611516611b40565b60200101906001600160f81b031916908160001a905350611538600a86611db0565b94506114d8565b60006001600160a01b0384163b1561164157604051630a85bd0160e11b81526001600160a01b0385169063150b7a0290611583903390899088908890600401611dd8565b602060405180830381600087803b15801561159d57600080fd5b505af19250505080156115cd575060408051601f3d908101601f191682019092526115ca91810190611e15565b60015b611627573d8080156115fb576040519150601f19603f3d011682016040523d82523d6000602084013e611600565b606091505b50805161161f5760405162461bcd60e51b815260040161048290611d48565b805181602001fd5b6001600160e01b031916630a85bd0160e11b1490506110d0565b506001949350505050565b6001600160e01b031981168114610c0d57600080fd5b60006020828403121561167457600080fd5b8135610f4e8161164c565b60005b8381101561169a578181015183820152602001611682565b83811115610e775750506000910152565b600081518084526116c381602086016020860161167f565b601f01601f19169290920160200192915050565b602081526000610f4e60208301846116ab565b6000602082840312156116fc57600080fd5b5035919050565b6001600160a01b0391909116815260200190565b80356001600160a01b038116811461172e57600080fd5b919050565b6000806040838503121561174657600080fd5b61174f83611717565b946020939093013593505050565b60008060006060848603121561177257600080fd5b61177b84611717565b925061178960208501611717565b9150604084013590509250925092565b634e487b7160e01b600052604160045260246000fd5b604051606081016001600160401b03811182821017156117d1576117d1611799565b60405290565b604080519081016001600160401b03811182821017156117d1576117d1611799565b604051601f8201601f191681016001600160401b038111828210171561182157611821611799565b604052919050565b60006001600160401b0382111561184257611842611799565b5060051b60200190565b60ff81168114610c0d57600080fd5b6000602080838503121561186e57600080fd5b82356001600160401b0381111561188457600080fd5b8301601f8101851361189557600080fd5b80356118a86118a382611829565b6117f9565b818152606091820283018401918482019190888411156118c757600080fd5b938501935b838510156119215780858a0312156118e45760008081fd5b6118ec6117af565b6118f586611717565b8152868601358782015260408087013561190e8161184c565b90820152835293840193918501916118cc565b50979650505050505050565b60006020828403121561193f57600080fd5b610f4e82611717565b6000806040838503121561195b57600080fd5b61196483611717565b91506020830135801515811461197957600080fd5b809150509250929050565b634e487b7160e01b600052602160045260246000fd5b60208101600283106119bc57634e487b7160e01b600052602160045260246000fd5b91905290565b600080600080608085870312156119d857600080fd5b6119e185611717565b935060206119f0818701611717565b93506040860135925060608601356001600160401b0380821115611a1357600080fd5b818801915088601f830112611a2757600080fd5b813581811115611a3957611a39611799565b611a4b601f8201601f191685016117f9565b91508082528984828501011115611a6157600080fd5b808484018584013760008482840101525080935050505092959194509250565b60008060408385031215611a9457600080fd5b611a9d83611717565b9150611aab60208401611717565b90509250929050565b600181811c90821680611ac857607f821691505b60208210811415611ae957634e487b7160e01b600052602260045260246000fd5b50919050565b60208082526031908201527f4552433732313a207472616e736665722063616c6c6572206973206e6f74206f6040820152701ddb995c881b9bdc88185c1c1c9bdd9959607a1b606082015260800190565b634e487b7160e01b600052603260045260246000fd5b805161172e8161184c565b60006020808385031215611b7457600080fd5b82516001600160401b0380821115611b8b57600080fd5b9084019060408287031215611b9f57600080fd5b611ba76117d7565b825182811115611bb657600080fd5b83019150601f82018713611bc957600080fd5b8151611bd76118a382611829565b81815260059190911b83018501908581019089831115611bf657600080fd5b938601935b82851015611c1d578451611c0e8161184c565b82529386019390860190611bfb565b835250611c2d9050838501611b56565b848201528094505050505092915050565b634e487b7160e01b600052601160045260246000fd5b600060ff821660ff841680821015611c6e57611c6e611c3e565b90039392505050565b6000816000190483118215151615611c9157611c91611c3e565b500290565b60008219821115611ca957611ca9611c3e565b500190565b6000600019821415611cc257611cc2611c3e565b5060010190565b600060ff821660ff811415611ce057611ce0611c3e565b60010192915050565b600060208284031215611cfb57600080fd5b5051919050565b60008351611d1481846020880161167f565b835190830190611d2881836020880161167f565b01949350505050565b600082821015611d4357611d43611c3e565b500390565b60208082526032908201527f4552433732313a207472616e7366657220746f206e6f6e20455243373231526560408201527131b2b4bb32b91034b6b83632b6b2b73a32b960711b606082015260800190565b634e487b7160e01b600052601260045260246000fd5b600082611dbf57611dbf611d9a565b500490565b600082611dd357611dd3611d9a565b500690565b6001600160a01b0385811682528416602082015260408101839052608060608201819052600090611e0b908301846116ab565b9695505050505050565b600060208284031215611e2757600080fd5b8151610f4e8161164c56feddf252ad1be2c89b69c2b068fc378daa952ba7f163c4a11628f55a4df523b3efa264697066735822122030434489bd45d60aa97dcc5f2d16ef6c191948b9b842260315c0f560b9e052d064736f6c63430008090033ddf252ad1be2c89b69c2b068fc378daa952ba7f163c4a11628f55a4df523b3efa2646970667358221220340d5a0123c2ddae2f03f9c429030c013de277cf3f05ad4aaf872c8ddb1d663064736f6c63430008090033",
  "linkReferences": {
    "contracts/CasinoLibrary.sol": {
      "CasinoLibrary": [
        {
          "length": 20,
          "start": 8112
        }
      ]
    }
  },
  "deployedLinkReferences": {
    "contracts/CasinoLibrary.sol": {
      "CasinoLibrary": [
        {
          "length": 20,
          "start": 7627
        }
      ]
    }
  }
}