{
  "_format": "hh-sol-artifact-1",
  "contractName": "RouletteTable",
  "sourceName": "contracts/RouletteTable.sol",
  "abi": [
    {
      "inputs": [
        {
          "internalType": "address",
          "name": "_operator",
          "type": "address"
        },
        {
          "internalType": "address",
          "name": "casinoAddress",
          "type": "address"
        }
      ],
      "stateMutability": "nonpayable",
      "type": "constructor"
    },
    {
      "inputs": [
        {
          "components": [
            {
              "internalType": "address",
              "name": "from",
              "type": "address"
            },
            {
              "internalType": "uint256",
              "name": "amount",
              "type": "uint256"
            },
            {
              "internalType": "uint8",
              "name": "betId",
              "type": "uint8"
            }
          ],
          "internalType": "struct CasinoLibrary.Bet[]",
          "name": "bets",
          "type": "tuple[]"
        }
      ],
      "name": "bet",
      "outputs": [],
      "stateMutability": "nonpayable",
      "type": "function"
    },
    {
      "inputs": [],
      "name": "casino",
      "outputs": [
        {
          "internalType": "contract IRouletteSpinCasino",
          "name": "",
          "type": "address"
        }
      ],
      "stateMutability": "view",
      "type": "function"
    },
    {
      "inputs": [
        {
          "internalType": "uint256",
          "name": "",
          "type": "uint256"
        }
      ],
      "name": "currentBets",
      "outputs": [
        {
          "internalType": "address",
          "name": "from",
          "type": "address"
        },
        {
          "internalType": "uint256",
          "name": "amount",
          "type": "uint256"
        },
        {
          "internalType": "uint8",
          "name": "betId",
          "type": "uint8"
        }
      ],
      "stateMutability": "view",
      "type": "function"
    },
    {
      "inputs": [
        {
          "internalType": "uint256",
          "name": "amount",
          "type": "uint256"
        }
      ],
      "name": "deposit",
      "outputs": [],
      "stateMutability": "nonpayable",
      "type": "function"
    },
    {
      "inputs": [],
      "name": "getBets",
      "outputs": [
        {
          "components": [
            {
              "internalType": "address",
              "name": "from",
              "type": "address"
            },
            {
              "internalType": "uint256",
              "name": "amount",
              "type": "uint256"
            },
            {
              "internalType": "uint8",
              "name": "betId",
              "type": "uint8"
            }
          ],
          "internalType": "struct CasinoLibrary.Bet[]",
          "name": "",
          "type": "tuple[]"
        }
      ],
      "stateMutability": "view",
      "type": "function"
    },
    {
      "inputs": [],
      "name": "operator",
      "outputs": [
        {
          "internalType": "address",
          "name": "",
          "type": "address"
        }
      ],
      "stateMutability": "view",
      "type": "function"
    },
    {
      "inputs": [],
      "name": "tableStatus",
      "outputs": [
        {
          "internalType": "enum CasinoLibrary.TableStatus",
          "name": "",
          "type": "uint8"
        }
      ],
      "stateMutability": "view",
      "type": "function"
    }
  ],
  "bytecode": "0x608060405234801561001057600080fd5b50604051610cac380380610cac83398101604081905261002f9161007c565b600080546001600160a01b039384166001600160a01b031991821617909155600580549290931691161790556100af565b80516001600160a01b038116811461007757600080fd5b919050565b6000806040838503121561008f57600080fd5b61009883610060565b91506100a660208401610060565b90509250929050565b610bee806100be6000396000f3fe608060405234801561001057600080fd5b506004361061006d5760003560e01c80633e597bd514610072578063570ca735146100875780639403e8dd146100b0578063a6afd5fd146100c3578063b5220002146100d8578063b6b55f25146100f9578063dcace36a1461010c575b600080fd5b610085610080366004610840565b610171565b005b60005461009a906001600160a01b031681565b6040516100a79190610921565b60405180910390f35b60055461009a906001600160a01b031681565b6100cb61068c565b6040516100a79190610935565b6000546100ec90600160a01b900460ff1681565b6040516100a791906109b0565b6100856101073660046109d8565b610714565b61014961011a3660046109d8565b60016020819052600091825260409091208054918101546002909101546001600160a01b039092169160ff1683565b604080516001600160a01b039094168452602084019290925260ff16908201526060016100a7565b60008054600160a01b900460ff1660018111156101905761019061099a565b146101d45760405162461bcd60e51b815260206004820152600f60248201526e5269656e206e6520766120706c757360881b60448201526064015b60405180910390fd5b6000805b82518160ff1610156104b7576000838260ff16815181106101fb576101fb6109f1565b602002602001015160200151116102495760405162461bcd60e51b8152602060048201526012602482015271596f752063616e277420626574207a65726f60701b60448201526064016101cb565b336001600160a01b0316838260ff1681518110610268576102686109f1565b6020026020010151600001516001600160a01b0316146102dc5760405162461bcd60e51b815260206004820152602960248201527f44696420796f75206a7573742074727920746f2062657420666f7220736f6d656044820152686f6e6520656c73653f60b81b60648201526084016101cb565b600073__$ed604fe81edc1ea2d6472d444d8d6a3786$__63913d081f858460ff168151811061030d5761030d6109f1565b6020026020010151604001516040518263ffffffff1660e01b815260040161033e919060ff91909116815260200190565b60006040518083038186803b15801561035657600080fd5b505af415801561036a573d6000803e3d6000fd5b505050506040513d6000823e601f3d908101601f191682016040526103929190810190610a17565b9050600181602001516103a59190610b0a565b60ff16848360ff16815181106103bd576103bd6109f1565b6020026020010151602001516103d39190610b2d565b600460008282546103e49190610b4c565b92505081905550838260ff1681518110610400576104006109f1565b602002602001015160200151836104179190610b4c565b9250838260ff168151811061042e5761042e6109f1565b6020026020010151600160006002600081548092919061044d90610b64565b9091555081526020808201929092526040908101600020835181546001600160a01b0319166001600160a01b0390911617815591830151600183015591909101516002909101805460ff191660ff90921691909117905550806104af81610b7f565b9150506101d8565b506005546040516370a0823160e01b81526001600160a01b03909116906370a08231906104e8903390600401610921565b60206040518083038186803b15801561050057600080fd5b505afa158015610514573d6000803e3d6000fd5b505050506040513d601f19601f820116820180604052508101906105389190610b9f565b8111156105925760405162461bcd60e51b815260206004820152602260248201527f446f6e277420626574206d6f7265207468616e20796f752063616e206166666f6044820152611c9960f21b60648201526084016101cb565b6005546040516370a0823160e01b81526001600160a01b03909116906370a08231906105c2903090600401610921565b60206040518083038186803b1580156105da57600080fd5b505afa1580156105ee573d6000803e3d6000fd5b505050506040513d601f19601f820116820180604052508101906106129190610b9f565b60045411156106715760405162461bcd60e51b815260206004820152602560248201527f57652063616e2774206166666f726420746f2070617920796f7520696620796f6044820152643a903bb4b760d91b60648201526084016101cb565b80600360008282546106839190610b4c565b90915550505050565b60608060005b60025481101561070e57600081815260016020818152604092839020835160608101855281546001600160a01b0316815292810154918301919091526002015460ff169181019190915282518390839081106106f0576106f06109f1565b6020026020010181905250808061070690610b64565b915050610692565b50919050565b6005546040516311f9fbc960e21b8152336004820152602481018390526001600160a01b03909116906347e7ef2490604401600060405180830381600087803b15801561076057600080fd5b505af1158015610774573d6000803e3d6000fd5b5050505050565b634e487b7160e01b600052604160045260246000fd5b604051606081016001600160401b03811182821017156107b3576107b361077b565b60405290565b604080519081016001600160401b03811182821017156107b3576107b361077b565b604051601f8201601f191681016001600160401b03811182821017156108035761080361077b565b604052919050565b60006001600160401b038211156108245761082461077b565b5060051b60200190565b60ff8116811461083d57600080fd5b50565b6000602080838503121561085357600080fd5b82356001600160401b0381111561086957600080fd5b8301601f8101851361087a57600080fd5b803561088d6108888261080b565b6107db565b818152606091820283018401918482019190888411156108ac57600080fd5b938501935b838510156109155780858a0312156108c95760008081fd5b6108d1610791565b85356001600160a01b03811681146108e95760008081fd5b815285870135878201526040808701356109028161082e565b90820152835293840193918501916108b1565b50979650505050505050565b6001600160a01b0391909116815260200190565b602080825282518282018190526000919060409081850190868401855b8281101561098d57815180516001600160a01b03168552868101518786015285015160ff168585015260609093019290850190600101610952565b5091979650505050505050565b634e487b7160e01b600052602160045260246000fd5b60208101600283106109d257634e487b7160e01b600052602160045260246000fd5b91905290565b6000602082840312156109ea57600080fd5b5035919050565b634e487b7160e01b600052603260045260246000fd5b8051610a128161082e565b919050565b60006020808385031215610a2a57600080fd5b82516001600160401b0380821115610a4157600080fd5b9084019060408287031215610a5557600080fd5b610a5d6107b9565b825182811115610a6c57600080fd5b83019150601f82018713610a7f57600080fd5b8151610a8d6108888261080b565b81815260059190911b83018501908581019089831115610aac57600080fd5b938601935b82851015610ad3578451610ac48161082e565b82529386019390860190610ab1565b835250610ae39050838501610a07565b848201528094505050505092915050565b634e487b7160e01b600052601160045260246000fd5b600060ff821660ff841680821015610b2457610b24610af4565b90039392505050565b6000816000190483118215151615610b4757610b47610af4565b500290565b60008219821115610b5f57610b5f610af4565b500190565b6000600019821415610b7857610b78610af4565b5060010190565b600060ff821660ff811415610b9657610b96610af4565b60010192915050565b600060208284031215610bb157600080fd5b505191905056fea26469706673582212203d6a1c6fc2105de68020eb0658bbaa1aef7db04378fd37f29fd5e3945289a34364736f6c63430008090033",
  "linkReferences": {
    "contracts/CasinoLibrary.sol": {
      "CasinoLibrary": [
        {
          "length": 20,
          "start": 926
        }
      ]
    }
  },
  "deployedLinkReferences": {
    "contracts/CasinoLibrary.sol": {
      "CasinoLibrary": [
        {
          "length": 20,
          "start": 736
        }
      ]
    }
  }
}