{
  "_format": "hh-sol-artifact-1",
  "contractName": "RouletteSpinCasino",
  "sourceName": "contracts/RouletteSpinCasino.sol",
  "abi": [
    {
      "inputs": [
        {
          "internalType": "address",
          "name": "_rng",
          "type": "address"
        },
        {
          "internalType": "address",
          "name": "_tableNFT",
          "type": "address"
        }
      ],
      "stateMutability": "nonpayable",
      "type": "constructor"
    },
    {
      "anonymous": false,
      "inputs": [
        {
          "indexed": true,
          "internalType": "address",
          "name": "owner",
          "type": "address"
        },
        {
          "indexed": true,
          "internalType": "address",
          "name": "spender",
          "type": "address"
        },
        {
          "indexed": false,
          "internalType": "uint256",
          "name": "value",
          "type": "uint256"
        }
      ],
      "name": "Approval",
      "type": "event"
    },
    {
      "anonymous": false,
      "inputs": [
        {
          "indexed": true,
          "internalType": "address",
          "name": "previousOwner",
          "type": "address"
        },
        {
          "indexed": true,
          "internalType": "address",
          "name": "newOwner",
          "type": "address"
        }
      ],
      "name": "OwnershipTransferred",
      "type": "event"
    },
    {
      "anonymous": false,
      "inputs": [
        {
          "indexed": false,
          "internalType": "address",
          "name": "tableAddress",
          "type": "address"
        }
      ],
      "name": "TableCreated",
      "type": "event"
    },
    {
      "anonymous": false,
      "inputs": [
        {
          "indexed": true,
          "internalType": "address",
          "name": "from",
          "type": "address"
        },
        {
          "indexed": true,
          "internalType": "address",
          "name": "to",
          "type": "address"
        },
        {
          "indexed": false,
          "internalType": "uint256",
          "name": "value",
          "type": "uint256"
        }
      ],
      "name": "Transfer",
      "type": "event"
    },
    {
      "inputs": [
        {
          "internalType": "address",
          "name": "owner",
          "type": "address"
        },
        {
          "internalType": "address",
          "name": "spender",
          "type": "address"
        }
      ],
      "name": "allowance",
      "outputs": [
        {
          "internalType": "uint256",
          "name": "",
          "type": "uint256"
        }
      ],
      "stateMutability": "view",
      "type": "function"
    },
    {
      "inputs": [
        {
          "internalType": "address",
          "name": "spender",
          "type": "address"
        },
        {
          "internalType": "uint256",
          "name": "amount",
          "type": "uint256"
        }
      ],
      "name": "approve",
      "outputs": [
        {
          "internalType": "bool",
          "name": "",
          "type": "bool"
        }
      ],
      "stateMutability": "nonpayable",
      "type": "function"
    },
    {
      "inputs": [
        {
          "internalType": "address",
          "name": "account",
          "type": "address"
        }
      ],
      "name": "balanceOf",
      "outputs": [
        {
          "internalType": "uint256",
          "name": "",
          "type": "uint256"
        }
      ],
      "stateMutability": "view",
      "type": "function"
    },
    {
      "inputs": [
        {
          "internalType": "uint256",
          "name": "amount",
          "type": "uint256"
        }
      ],
      "name": "burn",
      "outputs": [],
      "stateMutability": "nonpayable",
      "type": "function"
    },
    {
      "inputs": [
        {
          "internalType": "address",
          "name": "account",
          "type": "address"
        },
        {
          "internalType": "uint256",
          "name": "amount",
          "type": "uint256"
        }
      ],
      "name": "burnFrom",
      "outputs": [],
      "stateMutability": "nonpayable",
      "type": "function"
    },
    {
      "inputs": [],
      "name": "decimals",
      "outputs": [
        {
          "internalType": "uint8",
          "name": "",
          "type": "uint8"
        }
      ],
      "stateMutability": "view",
      "type": "function"
    },
    {
      "inputs": [
        {
          "internalType": "address",
          "name": "spender",
          "type": "address"
        },
        {
          "internalType": "uint256",
          "name": "subtractedValue",
          "type": "uint256"
        }
      ],
      "name": "decreaseAllowance",
      "outputs": [
        {
          "internalType": "bool",
          "name": "",
          "type": "bool"
        }
      ],
      "stateMutability": "nonpayable",
      "type": "function"
    },
    {
      "inputs": [
        {
          "internalType": "address",
          "name": "fromPlayer",
          "type": "address"
        },
        {
          "internalType": "uint256",
          "name": "amount",
          "type": "uint256"
        }
      ],
      "name": "deposit",
      "outputs": [],
      "stateMutability": "nonpayable",
      "type": "function"
    },
    {
      "inputs": [
        {
          "internalType": "address",
          "name": "toTable",
          "type": "address"
        },
        {
          "internalType": "uint256",
          "name": "amount",
          "type": "uint256"
        }
      ],
      "name": "fund",
      "outputs": [],
      "stateMutability": "nonpayable",
      "type": "function"
    },
    {
      "inputs": [],
      "name": "getTables",
      "outputs": [
        {
          "internalType": "address[]",
          "name": "",
          "type": "address[]"
        }
      ],
      "stateMutability": "view",
      "type": "function"
    },
    {
      "inputs": [
        {
          "internalType": "uint256",
          "name": "_roundId",
          "type": "uint256"
        }
      ],
      "name": "getWinningNumber",
      "outputs": [
        {
          "internalType": "uint256[]",
          "name": "",
          "type": "uint256[]"
        }
      ],
      "stateMutability": "view",
      "type": "function"
    },
    {
      "inputs": [
        {
          "internalType": "address",
          "name": "spender",
          "type": "address"
        },
        {
          "internalType": "uint256",
          "name": "addedValue",
          "type": "uint256"
        }
      ],
      "name": "increaseAllowance",
      "outputs": [
        {
          "internalType": "bool",
          "name": "",
          "type": "bool"
        }
      ],
      "stateMutability": "nonpayable",
      "type": "function"
    },
    {
      "inputs": [
        {
          "internalType": "address",
          "name": "to",
          "type": "address"
        },
        {
          "internalType": "uint256",
          "name": "amount",
          "type": "uint256"
        }
      ],
      "name": "mint",
      "outputs": [],
      "stateMutability": "nonpayable",
      "type": "function"
    },
    {
      "inputs": [
        {
          "internalType": "uint256",
          "name": "initialAmount",
          "type": "uint256"
        }
      ],
      "name": "mintTable",
      "outputs": [],
      "stateMutability": "nonpayable",
      "type": "function"
    },
    {
      "inputs": [],
      "name": "name",
      "outputs": [
        {
          "internalType": "string",
          "name": "",
          "type": "string"
        }
      ],
      "stateMutability": "view",
      "type": "function"
    },
    {
      "inputs": [],
      "name": "owner",
      "outputs": [
        {
          "internalType": "address",
          "name": "",
          "type": "address"
        }
      ],
      "stateMutability": "view",
      "type": "function"
    },
    {
      "inputs": [],
      "name": "publicMint",
      "outputs": [],
      "stateMutability": "nonpayable",
      "type": "function"
    },
    {
      "inputs": [],
      "name": "renounceOwnership",
      "outputs": [],
      "stateMutability": "nonpayable",
      "type": "function"
    },
    {
      "inputs": [],
      "name": "rngAddress",
      "outputs": [
        {
          "internalType": "address",
          "name": "",
          "type": "address"
        }
      ],
      "stateMutability": "view",
      "type": "function"
    },
    {
      "inputs": [],
      "name": "symbol",
      "outputs": [
        {
          "internalType": "string",
          "name": "",
          "type": "string"
        }
      ],
      "stateMutability": "view",
      "type": "function"
    },
    {
      "inputs": [],
      "name": "tableNFTAddress",
      "outputs": [
        {
          "internalType": "address",
          "name": "",
          "type": "address"
        }
      ],
      "stateMutability": "view",
      "type": "function"
    },
    {
      "inputs": [],
      "name": "totalSupply",
      "outputs": [
        {
          "internalType": "uint256",
          "name": "",
          "type": "uint256"
        }
      ],
      "stateMutability": "view",
      "type": "function"
    },
    {
      "inputs": [
        {
          "internalType": "address",
          "name": "recipient",
          "type": "address"
        },
        {
          "internalType": "uint256",
          "name": "amount",
          "type": "uint256"
        }
      ],
      "name": "transfer",
      "outputs": [
        {
          "internalType": "bool",
          "name": "",
          "type": "bool"
        }
      ],
      "stateMutability": "nonpayable",
      "type": "function"
    },
    {
      "inputs": [
        {
          "internalType": "address",
          "name": "sender",
          "type": "address"
        },
        {
          "internalType": "address",
          "name": "recipient",
          "type": "address"
        },
        {
          "internalType": "uint256",
          "name": "amount",
          "type": "uint256"
        }
      ],
      "name": "transferFrom",
      "outputs": [
        {
          "internalType": "bool",
          "name": "",
          "type": "bool"
        }
      ],
      "stateMutability": "nonpayable",
      "type": "function"
    },
    {
      "inputs": [
        {
          "internalType": "address",
          "name": "newOwner",
          "type": "address"
        }
      ],
      "name": "transferOwnership",
      "outputs": [],
      "stateMutability": "nonpayable",
      "type": "function"
    }
  ],
  "bytecode": "0x60806040523480156200001157600080fd5b506040516200263d3803806200263d83398101604081905262000034916200021d565b604080518082018252600d81526c2937bab632ba3a329029b834b760991b6020808301918252835180850190945260048452632929a82760e11b90840152815191929162000085916003916200015a565b5080516200009b9060049060208401906200015a565b505050620000b8620000b26200010460201b60201c565b62000108565b600b80546001600160a01b039384166001600160a01b03199182168117909255600980548216909217909155600c8054929093169181168217909255600a805490921617905562000292565b3390565b600580546001600160a01b038381166001600160a01b0319831681179093556040519116919082907f8be0079c531659141344cd1fd0a4f28419497f9722a3daafe3b4186f6b6457e090600090a35050565b828054620001689062000255565b90600052602060002090601f0160209004810192826200018c5760008555620001d7565b82601f10620001a757805160ff1916838001178555620001d7565b82800160010185558215620001d7579182015b82811115620001d7578251825591602001919060010190620001ba565b50620001e5929150620001e9565b5090565b5b80821115620001e55760008155600101620001ea565b80516001600160a01b03811681146200021857600080fd5b919050565b600080604083850312156200023157600080fd5b6200023c8362000200565b91506200024c6020840162000200565b90509250929050565b600181811c908216806200026a57607f821691505b602082108114156200028c57634e487b7160e01b600052602260045260246000fd5b50919050565b61239b80620002a26000396000f3fe608060405234801561001057600080fd5b50600436106101335760003560e01c806306fdde0314610138578063095ea7b31461015657806318160ddd146101795780631d43776e1461018b57806323b872dd146101ab57806326092b83146101be57806328343c34146101c8578063313ce567146101dd57806339509351146101ec57806340c10f19146101ff57806342966c681461021257806347e7ef241461022557806370a0823114610238578063715018a61461026157806372f96f731461026957806374eac9d21461027c57806374ecf4b51461028f57806379cc6790146102af5780637b1837de146102c25780638da5cb5b146102d557806395d89b41146102dd578063a457c2d7146102e5578063a9059cbb146102f8578063dd62ed3e1461030b578063f2fde38b14610344575b600080fd5b610140610357565b60405161014d9190611305565b60405180910390f35b61016961016436600461136f565b6103e9565b604051901515815260200161014d565b6002545b60405190815260200161014d565b600b5461019e906001600160a01b031681565b60405161014d919061139b565b6101696101b93660046113af565b6103ff565b6101c66104ae565b005b6101d06104bc565b60405161014d91906113f0565b6040516012815260200161014d565b6101696101fa36600461136f565b61051d565b6101c661020d36600461136f565b610559565b6101c661022036600461143d565b610596565b6101c661023336600461136f565b6105a3565b61017d610246366004611456565b6001600160a01b031660009081526020819052604090205490565b6101c661070d565b600c5461019e906001600160a01b031681565b6101c661028a36600461143d565b610746565b6102a261029d36600461143d565b610901565b60405161014d919061147a565b6101c66102bd36600461136f565b610a8e565b6101c66102d036600461136f565b610b0f565b61019e610c5b565b610140610c6a565b6101696102f336600461136f565b610c79565b61016961030636600461136f565b610d12565b61017d6103193660046114b2565b6001600160a01b03918216600090815260016020908152604080832093909416825291909152205490565b6101c6610352366004611456565b610d1f565b606060038054610366906114eb565b80601f0160208091040260200160405190810160405280929190818152602001828054610392906114eb565b80156103df5780601f106103b4576101008083540402835291602001916103df565b820191906000526020600020905b8154815290600101906020018083116103c257829003601f168201915b5050505050905090565b60006103f6338484610dbc565b50600192915050565b600061040c848484610ee0565b6001600160a01b0384166000908152600160209081526040808320338452909152902054828110156104965760405162461bcd60e51b815260206004820152602860248201527f45524332303a207472616e7366657220616d6f756e74206578636565647320616044820152676c6c6f77616e636560c01b60648201526084015b60405180910390fd5b6104a38533858403610dbc565b506001949350505050565b6104ba336101f461109d565b565b606060088054806020026020016040519081016040528092919081815260200182805480156103df57602002820191906000526020600020905b81546001600160a01b031681526001909101906020018083116104f6575050505050905090565b3360008181526001602090815260408083206001600160a01b038716845290915281205490916103f691859061055490869061153c565b610dbc565b33610562610c5b565b6001600160a01b0316146105885760405162461bcd60e51b815260040161048d90611554565b610592828261109d565b5050565b6105a0338261116a565b50565b3360009081526007602052604090205460ff166106145760405162461bcd60e51b815260206004820152602960248201527f4f6e6c7920726f756c65747465207461626c65732063616e2063616c6c2074686044820152681a5cc81b595d1a1bd960ba1b606482015260840161048d565b6000339050336001600160a01b0316816001600160a01b031663570ca7356040518163ffffffff1660e01b815260040160206040518083038186803b15801561065c57600080fd5b505afa158015610670573d6000803e3d6000fd5b505050506040513d601f19601f820116820180604052508101906106949190611589565b6001600160a01b0316146106fd5760405162461bcd60e51b815260206004820152602a60248201527f596f752073686f756c646e27742066756e64206f746865722070656f706c652760448201526939903a30b1363297171760b11b606482015260840161048d565b610708833384610ee0565b505050565b33610716610c5b565b6001600160a01b03161461073c5760405162461bcd60e51b815260040161048d90611554565b6104ba60006112a6565b600081116107a95760405162461bcd60e51b815260206004820152602a60248201527f596f75206e65656420746f207374616b6520736f6d652066756e647320696e2060448201526974686174207461626c6560b01b606482015260840161048d565b600a546040516340d097c360e01b81526001600160a01b03909116906340d097c3906107d990339060040161139b565b600060405180830381600087803b1580156107f357600080fd5b505af1158015610807573d6000803e3d6000fd5b505050506000333060405161081b906112f8565b6001600160a01b03928316815291166020820152604001604051809103906000f08015801561084e573d6000803e3d6000fd5b5090508061085d338285610ee0565b6001600160a01b038116600081815260076020526040808220805460ff191660019081179091556008805491820181559092527ff3f7a9fe364faab93b216da50a3214154f22a0a2b415b23a84c8169e8b636ee390910180546001600160a01b031916909217909155517f85d8247bf36ce53123834da33f5a6c0fa9dc15741e86ef5e27f7803058836740906108f490839061139b565b60405180910390a1505050565b600954604051632a4a837160e21b8152600481018390526060916000916001600160a01b039091169063a92a0dc49060240160806040518083038186803b15801561094b57600080fd5b505afa15801561095f573d6000803e3d6000fd5b505050506040513d601f19601f8201168201806040525081019061098391906115bc565b6008549091506000816001600160401b038111156109a3576109a36115a6565b6040519080825280602002602001820160405280156109cc578160200160208202803683370190505b50905060005b600854811015610a855760258460600151600883815481106109f6576109f661162f565b60009182526020918290200154604051610a3393926001600160a01b03909216910191825260601b6001600160601b031916602082015260340190565b6040516020818303038152906040528051906020012060001c610a569190611645565b828281518110610a6857610a6861162f565b602090810291909101015280610a7d81611667565b9150506109d2565b50949350505050565b6000610a9a8333610319565b905081811015610af85760405162461bcd60e51b8152602060048201526024808201527f45524332303a206275726e20616d6f756e74206578636565647320616c6c6f77604482015263616e636560e01b606482015260840161048d565b610b058333848403610dbc565b610708838361116a565b6001600160a01b03821660009081526007602052604090205460ff16610b825760405162461bcd60e51b815260206004820152602260248201527f4f6e6c7920726f756c65747465207461626c65732063616e2062652066756e64604482015261195960f21b606482015260840161048d565b6000829050336001600160a01b0316816001600160a01b031663570ca7356040518163ffffffff1660e01b815260040160206040518083038186803b158015610bca57600080fd5b505afa158015610bde573d6000803e3d6000fd5b505050506040513d601f19601f82011682018060405250810190610c029190611589565b6001600160a01b031614610c505760405162461bcd60e51b8152602060048201526015602482015274546861742773206e6f7420796f7572207461626c6560581b604482015260640161048d565b610708338484610ee0565b6005546001600160a01b031690565b606060048054610366906114eb565b3360009081526001602090815260408083206001600160a01b038616845290915281205482811015610cfb5760405162461bcd60e51b815260206004820152602560248201527f45524332303a2064656372656173656420616c6c6f77616e63652062656c6f77604482015264207a65726f60d81b606482015260840161048d565b610d083385858403610dbc565b5060019392505050565b60006103f6338484610ee0565b33610d28610c5b565b6001600160a01b031614610d4e5760405162461bcd60e51b815260040161048d90611554565b6001600160a01b038116610db35760405162461bcd60e51b815260206004820152602660248201527f4f776e61626c653a206e6577206f776e657220697320746865207a65726f206160448201526564647265737360d01b606482015260840161048d565b6105a0816112a6565b6001600160a01b038316610e1e5760405162461bcd60e51b8152602060048201526024808201527f45524332303a20617070726f76652066726f6d20746865207a65726f206164646044820152637265737360e01b606482015260840161048d565b6001600160a01b038216610e7f5760405162461bcd60e51b815260206004820152602260248201527f45524332303a20617070726f766520746f20746865207a65726f206164647265604482015261737360f01b606482015260840161048d565b6001600160a01b0383811660008181526001602090815260408083209487168084529482529182902085905590518481527f8c5be1e5ebec7d5bd14f71427d1e84f3dd0314c0f7b2291e5b200ac8c7c3b925910160405180910390a3505050565b6001600160a01b038316610f445760405162461bcd60e51b815260206004820152602560248201527f45524332303a207472616e736665722066726f6d20746865207a65726f206164604482015264647265737360d81b606482015260840161048d565b6001600160a01b038216610fa65760405162461bcd60e51b815260206004820152602360248201527f45524332303a207472616e7366657220746f20746865207a65726f206164647260448201526265737360e81b606482015260840161048d565b6001600160a01b0383166000908152602081905260409020548181101561101e5760405162461bcd60e51b815260206004820152602660248201527f45524332303a207472616e7366657220616d6f756e7420657863656564732062604482015265616c616e636560d01b606482015260840161048d565b6001600160a01b0380851660009081526020819052604080822085850390559185168152908120805484929061105590849061153c565b92505081905550826001600160a01b0316846001600160a01b03166000805160206123468339815191528460405161108f91815260200190565b60405180910390a350505050565b6001600160a01b0382166110f35760405162461bcd60e51b815260206004820152601f60248201527f45524332303a206d696e7420746f20746865207a65726f206164647265737300604482015260640161048d565b8060026000828254611105919061153c565b90915550506001600160a01b0382166000908152602081905260408120805483929061113290849061153c565b90915550506040518181526001600160a01b038316906000906000805160206123468339815191529060200160405180910390a35050565b6001600160a01b0382166111ca5760405162461bcd60e51b815260206004820152602160248201527f45524332303a206275726e2066726f6d20746865207a65726f206164647265736044820152607360f81b606482015260840161048d565b6001600160a01b0382166000908152602081905260409020548181101561123e5760405162461bcd60e51b815260206004820152602260248201527f45524332303a206275726e20616d6f756e7420657863656564732062616c616e604482015261636560f01b606482015260840161048d565b6001600160a01b038316600090815260208190526040812083830390556002805484929061126d908490611682565b90915550506040518281526000906001600160a01b038516906000805160206123468339815191529060200160405180910390a3505050565b600580546001600160a01b038381166001600160a01b0319831681179093556040519116919082907f8be0079c531659141344cd1fd0a4f28419497f9722a3daafe3b4186f6b6457e090600090a35050565b610cac8061169a83390190565b600060208083528351808285015260005b8181101561133257858101830151858201604001528201611316565b81811115611344576000604083870101525b50601f01601f1916929092016040019392505050565b6001600160a01b03811681146105a057600080fd5b6000806040838503121561138257600080fd5b823561138d8161135a565b946020939093013593505050565b6001600160a01b0391909116815260200190565b6000806000606084860312156113c457600080fd5b83356113cf8161135a565b925060208401356113df8161135a565b929592945050506040919091013590565b6020808252825182820181905260009190848201906040850190845b818110156114315783516001600160a01b03168352928401929184019160010161140c565b50909695505050505050565b60006020828403121561144f57600080fd5b5035919050565b60006020828403121561146857600080fd5b81356114738161135a565b9392505050565b6020808252825182820181905260009190848201906040850190845b8181101561143157835183529284019291840191600101611496565b600080604083850312156114c557600080fd5b82356114d08161135a565b915060208301356114e08161135a565b809150509250929050565b600181811c908216806114ff57607f821691505b6020821081141561152057634e487b7160e01b600052602260045260246000fd5b50919050565b634e487b7160e01b600052601160045260246000fd5b6000821982111561154f5761154f611526565b500190565b6020808252818101527f4f776e61626c653a2063616c6c6572206973206e6f7420746865206f776e6572604082015260600190565b60006020828403121561159b57600080fd5b81516114738161135a565b634e487b7160e01b600052604160045260246000fd5b6000608082840312156115ce57600080fd5b604051608081016001600160401b03811182821017156115fe57634e487b7160e01b600052604160045260246000fd5b8060405250825181526020830151602082015260408301516040820152606083015160608201528091505092915050565b634e487b7160e01b600052603260045260246000fd5b60008261166257634e487b7160e01b600052601260045260246000fd5b500690565b600060001982141561167b5761167b611526565b5060010190565b60008282101561169457611694611526565b50039056fe608060405234801561001057600080fd5b50604051610cac380380610cac83398101604081905261002f9161007c565b600080546001600160a01b039384166001600160a01b031991821617909155600580549290931691161790556100af565b80516001600160a01b038116811461007757600080fd5b919050565b6000806040838503121561008f57600080fd5b61009883610060565b91506100a660208401610060565b90509250929050565b610bee806100be6000396000f3fe608060405234801561001057600080fd5b506004361061006d5760003560e01c80633e597bd514610072578063570ca735146100875780639403e8dd146100b0578063a6afd5fd146100c3578063b5220002146100d8578063b6b55f25146100f9578063dcace36a1461010c575b600080fd5b610085610080366004610840565b610171565b005b60005461009a906001600160a01b031681565b6040516100a79190610921565b60405180910390f35b60055461009a906001600160a01b031681565b6100cb61068c565b6040516100a79190610935565b6000546100ec90600160a01b900460ff1681565b6040516100a791906109b0565b6100856101073660046109d8565b610714565b61014961011a3660046109d8565b60016020819052600091825260409091208054918101546002909101546001600160a01b039092169160ff1683565b604080516001600160a01b039094168452602084019290925260ff16908201526060016100a7565b60008054600160a01b900460ff1660018111156101905761019061099a565b146101d45760405162461bcd60e51b815260206004820152600f60248201526e5269656e206e6520766120706c757360881b60448201526064015b60405180910390fd5b6000805b82518160ff1610156104b7576000838260ff16815181106101fb576101fb6109f1565b602002602001015160200151116102495760405162461bcd60e51b8152602060048201526012602482015271596f752063616e277420626574207a65726f60701b60448201526064016101cb565b336001600160a01b0316838260ff1681518110610268576102686109f1565b6020026020010151600001516001600160a01b0316146102dc5760405162461bcd60e51b815260206004820152602960248201527f44696420796f75206a7573742074727920746f2062657420666f7220736f6d656044820152686f6e6520656c73653f60b81b60648201526084016101cb565b600073__$ed604fe81edc1ea2d6472d444d8d6a3786$__63913d081f858460ff168151811061030d5761030d6109f1565b6020026020010151604001516040518263ffffffff1660e01b815260040161033e919060ff91909116815260200190565b60006040518083038186803b15801561035657600080fd5b505af415801561036a573d6000803e3d6000fd5b505050506040513d6000823e601f3d908101601f191682016040526103929190810190610a17565b9050600181602001516103a59190610b0a565b60ff16848360ff16815181106103bd576103bd6109f1565b6020026020010151602001516103d39190610b2d565b600460008282546103e49190610b4c565b92505081905550838260ff1681518110610400576104006109f1565b602002602001015160200151836104179190610b4c565b9250838260ff168151811061042e5761042e6109f1565b6020026020010151600160006002600081548092919061044d90610b64565b9091555081526020808201929092526040908101600020835181546001600160a01b0319166001600160a01b0390911617815591830151600183015591909101516002909101805460ff191660ff90921691909117905550806104af81610b7f565b9150506101d8565b506005546040516370a0823160e01b81526001600160a01b03909116906370a08231906104e8903390600401610921565b60206040518083038186803b15801561050057600080fd5b505afa158015610514573d6000803e3d6000fd5b505050506040513d601f19601f820116820180604052508101906105389190610b9f565b8111156105925760405162461bcd60e51b815260206004820152602260248201527f446f6e277420626574206d6f7265207468616e20796f752063616e206166666f6044820152611c9960f21b60648201526084016101cb565b6005546040516370a0823160e01b81526001600160a01b03909116906370a08231906105c2903090600401610921565b60206040518083038186803b1580156105da57600080fd5b505afa1580156105ee573d6000803e3d6000fd5b505050506040513d601f19601f820116820180604052508101906106129190610b9f565b60045411156106715760405162461bcd60e51b815260206004820152602560248201527f57652063616e2774206166666f726420746f2070617920796f7520696620796f6044820152643a903bb4b760d91b60648201526084016101cb565b80600360008282546106839190610b4c565b90915550505050565b60608060005b60025481101561070e57600081815260016020818152604092839020835160608101855281546001600160a01b0316815292810154918301919091526002015460ff169181019190915282518390839081106106f0576106f06109f1565b6020026020010181905250808061070690610b64565b915050610692565b50919050565b6005546040516311f9fbc960e21b8152336004820152602481018390526001600160a01b03909116906347e7ef2490604401600060405180830381600087803b15801561076057600080fd5b505af1158015610774573d6000803e3d6000fd5b5050505050565b634e487b7160e01b600052604160045260246000fd5b604051606081016001600160401b03811182821017156107b3576107b361077b565b60405290565b604080519081016001600160401b03811182821017156107b3576107b361077b565b604051601f8201601f191681016001600160401b03811182821017156108035761080361077b565b604052919050565b60006001600160401b038211156108245761082461077b565b5060051b60200190565b60ff8116811461083d57600080fd5b50565b6000602080838503121561085357600080fd5b82356001600160401b0381111561086957600080fd5b8301601f8101851361087a57600080fd5b803561088d6108888261080b565b6107db565b818152606091820283018401918482019190888411156108ac57600080fd5b938501935b838510156109155780858a0312156108c95760008081fd5b6108d1610791565b85356001600160a01b03811681146108e95760008081fd5b815285870135878201526040808701356109028161082e565b90820152835293840193918501916108b1565b50979650505050505050565b6001600160a01b0391909116815260200190565b602080825282518282018190526000919060409081850190868401855b8281101561098d57815180516001600160a01b03168552868101518786015285015160ff168585015260609093019290850190600101610952565b5091979650505050505050565b634e487b7160e01b600052602160045260246000fd5b60208101600283106109d257634e487b7160e01b600052602160045260246000fd5b91905290565b6000602082840312156109ea57600080fd5b5035919050565b634e487b7160e01b600052603260045260246000fd5b8051610a128161082e565b919050565b60006020808385031215610a2a57600080fd5b82516001600160401b0380821115610a4157600080fd5b9084019060408287031215610a5557600080fd5b610a5d6107b9565b825182811115610a6c57600080fd5b83019150601f82018713610a7f57600080fd5b8151610a8d6108888261080b565b81815260059190911b83018501908581019089831115610aac57600080fd5b938601935b82851015610ad3578451610ac48161082e565b82529386019390860190610ab1565b835250610ae39050838501610a07565b848201528094505050505092915050565b634e487b7160e01b600052601160045260246000fd5b600060ff821660ff841680821015610b2457610b24610af4565b90039392505050565b6000816000190483118215151615610b4757610b47610af4565b500290565b60008219821115610b5f57610b5f610af4565b500190565b6000600019821415610b7857610b78610af4565b5060010190565b600060ff821660ff811415610b9657610b96610af4565b60010192915050565b600060208284031215610bb157600080fd5b505191905056fea26469706673582212203d6a1c6fc2105de68020eb0658bbaa1aef7db04378fd37f29fd5e3945289a34364736f6c63430008090033ddf252ad1be2c89b69c2b068fc378daa952ba7f163c4a11628f55a4df523b3efa2646970667358221220da7cc7efb8c35604c06f8ff751e424e447225ce7af37bd8dc189b85df8fb886864736f6c63430008090033",
  "linkReferences": {
    "contracts/CasinoLibrary.sol": {
      "CasinoLibrary": [
        {
          "length": 20,
          "start": 7386
        }
      ]
    }
  },
  "deployedLinkReferences": {
    "contracts/CasinoLibrary.sol": {
      "CasinoLibrary": [
        {
          "length": 20,
          "start": 6712
        }
      ]
    }
  }
}