{
  "_format": "hh-sol-artifact-1",
  "contractName": "RouletteSpinCasino",
  "sourceName": "contracts/RouletteSpinCasino.sol",
  "abi": [
    {
      "inputs": [
        {
          "internalType": "address",
          "name": "_rnc",
          "type": "address"
        },
        {
          "internalType": "address",
          "name": "_tableNFT",
          "type": "address"
        }
      ],
      "stateMutability": "nonpayable",
      "type": "constructor"
    },
    {
      "anonymous": false,
      "inputs": [
        {
          "indexed": true,
          "internalType": "address",
          "name": "owner",
          "type": "address"
        },
        {
          "indexed": true,
          "internalType": "address",
          "name": "spender",
          "type": "address"
        },
        {
          "indexed": false,
          "internalType": "uint256",
          "name": "value",
          "type": "uint256"
        }
      ],
      "name": "Approval",
      "type": "event"
    },
    {
      "anonymous": false,
      "inputs": [
        {
          "indexed": true,
          "internalType": "address",
          "name": "previousOwner",
          "type": "address"
        },
        {
          "indexed": true,
          "internalType": "address",
          "name": "newOwner",
          "type": "address"
        }
      ],
      "name": "OwnershipTransferred",
      "type": "event"
    },
    {
      "anonymous": false,
      "inputs": [
        {
          "indexed": false,
          "internalType": "address",
          "name": "tableAddress",
          "type": "address"
        }
      ],
      "name": "TableCreated",
      "type": "event"
    },
    {
      "anonymous": false,
      "inputs": [
        {
          "indexed": true,
          "internalType": "address",
          "name": "from",
          "type": "address"
        },
        {
          "indexed": true,
          "internalType": "address",
          "name": "to",
          "type": "address"
        },
        {
          "indexed": false,
          "internalType": "uint256",
          "name": "value",
          "type": "uint256"
        }
      ],
      "name": "Transfer",
      "type": "event"
    },
    {
      "inputs": [
        {
          "internalType": "address",
          "name": "owner",
          "type": "address"
        },
        {
          "internalType": "address",
          "name": "spender",
          "type": "address"
        }
      ],
      "name": "allowance",
      "outputs": [
        {
          "internalType": "uint256",
          "name": "",
          "type": "uint256"
        }
      ],
      "stateMutability": "view",
      "type": "function"
    },
    {
      "inputs": [
        {
          "internalType": "address",
          "name": "spender",
          "type": "address"
        },
        {
          "internalType": "uint256",
          "name": "amount",
          "type": "uint256"
        }
      ],
      "name": "approve",
      "outputs": [
        {
          "internalType": "bool",
          "name": "",
          "type": "bool"
        }
      ],
      "stateMutability": "nonpayable",
      "type": "function"
    },
    {
      "inputs": [
        {
          "internalType": "address",
          "name": "account",
          "type": "address"
        }
      ],
      "name": "balanceOf",
      "outputs": [
        {
          "internalType": "uint256",
          "name": "",
          "type": "uint256"
        }
      ],
      "stateMutability": "view",
      "type": "function"
    },
    {
      "inputs": [
        {
          "internalType": "uint256",
          "name": "amount",
          "type": "uint256"
        }
      ],
      "name": "burn",
      "outputs": [],
      "stateMutability": "nonpayable",
      "type": "function"
    },
    {
      "inputs": [
        {
          "internalType": "address",
          "name": "account",
          "type": "address"
        },
        {
          "internalType": "uint256",
          "name": "amount",
          "type": "uint256"
        }
      ],
      "name": "burnFrom",
      "outputs": [],
      "stateMutability": "nonpayable",
      "type": "function"
    },
    {
      "inputs": [],
      "name": "decimals",
      "outputs": [
        {
          "internalType": "uint8",
          "name": "",
          "type": "uint8"
        }
      ],
      "stateMutability": "view",
      "type": "function"
    },
    {
      "inputs": [
        {
          "internalType": "address",
          "name": "spender",
          "type": "address"
        },
        {
          "internalType": "uint256",
          "name": "subtractedValue",
          "type": "uint256"
        }
      ],
      "name": "decreaseAllowance",
      "outputs": [
        {
          "internalType": "bool",
          "name": "",
          "type": "bool"
        }
      ],
      "stateMutability": "nonpayable",
      "type": "function"
    },
    {
      "inputs": [
        {
          "internalType": "address",
          "name": "fromPlayer",
          "type": "address"
        },
        {
          "internalType": "uint256",
          "name": "amount",
          "type": "uint256"
        }
      ],
      "name": "deposit",
      "outputs": [],
      "stateMutability": "nonpayable",
      "type": "function"
    },
    {
      "inputs": [
        {
          "internalType": "address",
          "name": "toTable",
          "type": "address"
        },
        {
          "internalType": "uint256",
          "name": "amount",
          "type": "uint256"
        }
      ],
      "name": "fund",
      "outputs": [],
      "stateMutability": "nonpayable",
      "type": "function"
    },
    {
      "inputs": [],
      "name": "getTables",
      "outputs": [
        {
          "internalType": "address[]",
          "name": "",
          "type": "address[]"
        }
      ],
      "stateMutability": "view",
      "type": "function"
    },
    {
      "inputs": [
        {
          "internalType": "address",
          "name": "spender",
          "type": "address"
        },
        {
          "internalType": "uint256",
          "name": "addedValue",
          "type": "uint256"
        }
      ],
      "name": "increaseAllowance",
      "outputs": [
        {
          "internalType": "bool",
          "name": "",
          "type": "bool"
        }
      ],
      "stateMutability": "nonpayable",
      "type": "function"
    },
    {
      "inputs": [
        {
          "internalType": "address",
          "name": "to",
          "type": "address"
        },
        {
          "internalType": "uint256",
          "name": "amount",
          "type": "uint256"
        }
      ],
      "name": "mint",
      "outputs": [],
      "stateMutability": "nonpayable",
      "type": "function"
    },
    {
      "inputs": [
        {
          "internalType": "uint256",
          "name": "initialAmount",
          "type": "uint256"
        }
      ],
      "name": "mintTable",
      "outputs": [],
      "stateMutability": "nonpayable",
      "type": "function"
    },
    {
      "inputs": [],
      "name": "name",
      "outputs": [
        {
          "internalType": "string",
          "name": "",
          "type": "string"
        }
      ],
      "stateMutability": "view",
      "type": "function"
    },
    {
      "inputs": [],
      "name": "owner",
      "outputs": [
        {
          "internalType": "address",
          "name": "",
          "type": "address"
        }
      ],
      "stateMutability": "view",
      "type": "function"
    },
    {
      "inputs": [],
      "name": "publicMint",
      "outputs": [],
      "stateMutability": "nonpayable",
      "type": "function"
    },
    {
      "inputs": [],
      "name": "renounceOwnership",
      "outputs": [],
      "stateMutability": "nonpayable",
      "type": "function"
    },
    {
      "inputs": [],
      "name": "symbol",
      "outputs": [
        {
          "internalType": "string",
          "name": "",
          "type": "string"
        }
      ],
      "stateMutability": "view",
      "type": "function"
    },
    {
      "inputs": [],
      "name": "totalSupply",
      "outputs": [
        {
          "internalType": "uint256",
          "name": "",
          "type": "uint256"
        }
      ],
      "stateMutability": "view",
      "type": "function"
    },
    {
      "inputs": [
        {
          "internalType": "address",
          "name": "recipient",
          "type": "address"
        },
        {
          "internalType": "uint256",
          "name": "amount",
          "type": "uint256"
        }
      ],
      "name": "transfer",
      "outputs": [
        {
          "internalType": "bool",
          "name": "",
          "type": "bool"
        }
      ],
      "stateMutability": "nonpayable",
      "type": "function"
    },
    {
      "inputs": [
        {
          "internalType": "address",
          "name": "sender",
          "type": "address"
        },
        {
          "internalType": "address",
          "name": "recipient",
          "type": "address"
        },
        {
          "internalType": "uint256",
          "name": "amount",
          "type": "uint256"
        }
      ],
      "name": "transferFrom",
      "outputs": [
        {
          "internalType": "bool",
          "name": "",
          "type": "bool"
        }
      ],
      "stateMutability": "nonpayable",
      "type": "function"
    },
    {
      "inputs": [
        {
          "internalType": "address",
          "name": "newOwner",
          "type": "address"
        }
      ],
      "name": "transferOwnership",
      "outputs": [],
      "stateMutability": "nonpayable",
      "type": "function"
    }
  ],
  "bytecode": "0x60806040523480156200001157600080fd5b50604051620024d2380380620024d2833981016040819052620000349162000206565b604080518082018252600d81526c2937bab632ba3a329029b834b760991b6020808301918252835180850190945260048452632929a82760e11b908401528151919291620000859160039162000143565b5080516200009b90600490602084019062000143565b505050620000b8620000b2620000ed60201b60201c565b620000f1565b600a80546001600160a01b039283166001600160a01b031991821617909155600980549390921692169190911790556200027b565b3390565b600580546001600160a01b038381166001600160a01b0319831681179093556040519116919082907f8be0079c531659141344cd1fd0a4f28419497f9722a3daafe3b4186f6b6457e090600090a35050565b82805462000151906200023e565b90600052602060002090601f016020900481019282620001755760008555620001c0565b82601f106200019057805160ff1916838001178555620001c0565b82800160010185558215620001c0579182015b82811115620001c0578251825591602001919060010190620001a3565b50620001ce929150620001d2565b5090565b5b80821115620001ce5760008155600101620001d3565b80516001600160a01b03811681146200020157600080fd5b919050565b600080604083850312156200021a57600080fd5b6200022583620001e9565b91506200023560208401620001e9565b90509250929050565b600181811c908216806200025357607f821691505b602082108114156200027557634e487b7160e01b600052602260045260246000fd5b50919050565b612247806200028b6000396000f3fe608060405234801561001057600080fd5b50600436106101125760003560e01c806306fdde0314610117578063095ea7b31461013557806318160ddd1461015857806323b872dd1461016a57806326092b831461017d57806328343c3414610187578063313ce5671461019c57806339509351146101ab57806340c10f19146101be57806342966c68146101d157806347e7ef24146101e457806370a08231146101f7578063715018a61461022057806374eac9d21461022857806379cc67901461023b5780637b1837de1461024e5780638da5cb5b1461026157806395d89b4114610276578063a457c2d71461027e578063a9059cbb14610291578063dd62ed3e146102a4578063f2fde38b146102dd575b600080fd5b61011f6102f0565b60405161012c919061118e565b60405180910390f35b6101486101433660046111f8565b610382565b604051901515815260200161012c565b6002545b60405190815260200161012c565b610148610178366004611224565b610398565b610185610447565b005b61018f610455565b60405161012c9190611265565b6040516012815260200161012c565b6101486101b93660046111f8565b6104b6565b6101856101cc3660046111f8565b6104f2565b6101856101df3660046112b2565b61052f565b6101856101f23660046111f8565b61053c565b61015c6102053660046112cb565b6001600160a01b031660009081526020819052604090205490565b6101856106a6565b6101856102363660046112b2565b6106df565b6101856102493660046111f8565b610917565b61018561025c3660046111f8565b610998565b610269610ae4565b60405161012c91906112ef565b61011f610af3565b61014861028c3660046111f8565b610b02565b61014861029f3660046111f8565b610b9b565b61015c6102b2366004611303565b6001600160a01b03918216600090815260016020908152604080832093909416825291909152205490565b6101856102eb3660046112cb565b610ba8565b6060600380546102ff9061133c565b80601f016020809104026020016040519081016040528092919081815260200182805461032b9061133c565b80156103785780601f1061034d57610100808354040283529160200191610378565b820191906000526020600020905b81548152906001019060200180831161035b57829003601f168201915b5050505050905090565b600061038f338484610c45565b50600192915050565b60006103a5848484610d69565b6001600160a01b03841660009081526001602090815260408083203384529091529020548281101561042f5760405162461bcd60e51b815260206004820152602860248201527f45524332303a207472616e7366657220616d6f756e74206578636565647320616044820152676c6c6f77616e636560c01b60648201526084015b60405180910390fd5b61043c8533858403610c45565b506001949350505050565b610453336101f4610f26565b565b6060600880548060200260200160405190810160405280929190818152602001828054801561037857602002820191906000526020600020905b81546001600160a01b0316815260019091019060200180831161048f575050505050905090565b3360008181526001602090815260408083206001600160a01b0387168452909152812054909161038f9185906104ed90869061138d565b610c45565b336104fb610ae4565b6001600160a01b0316146105215760405162461bcd60e51b8152600401610426906113a5565b61052b8282610f26565b5050565b6105393382610ff3565b50565b3360009081526007602052604090205460ff166105ad5760405162461bcd60e51b815260206004820152602960248201527f4f6e6c7920726f756c65747465207461626c65732063616e2063616c6c2074686044820152681a5cc81b595d1a1bd960ba1b6064820152608401610426565b6000339050336001600160a01b0316816001600160a01b031663570ca7356040518163ffffffff1660e01b815260040160206040518083038186803b1580156105f557600080fd5b505afa158015610609573d6000803e3d6000fd5b505050506040513d601f19601f8201168201806040525081019061062d91906113da565b6001600160a01b0316146106965760405162461bcd60e51b815260206004820152602a60248201527f596f752073686f756c646e27742066756e64206f746865722070656f706c652760448201526939903a30b1363297171760b11b6064820152608401610426565b6106a1833384610d69565b505050565b336106af610ae4565b6001600160a01b0316146106d55760405162461bcd60e51b8152600401610426906113a5565b610453600061112f565b600081116107425760405162461bcd60e51b815260206004820152602a60248201527f596f75206e65656420746f207374616b6520736f6d652066756e647320696e2060448201526974686174207461626c6560b01b6064820152608401610426565b600a546040516340d097c360e01b81526001600160a01b03909116906340d097c3906107729033906004016112ef565b600060405180830381600087803b15801561078c57600080fd5b505af11580156107a0573d6000803e3d6000fd5b50506009546040516000935033925030916001600160a01b0316906107c490611181565b6001600160a01b03938416815291831660208301529091166040820152606001604051809103906000f080158015610800573d6000803e3d6000fd5b50600954604051630bb7971960e01b815291925082916001600160a01b0390911690630bb79719906108369084906004016112ef565b600060405180830381600087803b15801561085057600080fd5b505af1158015610864573d6000803e3d6000fd5b50505050610873338285610d69565b6001600160a01b038116600081815260076020526040808220805460ff191660019081179091556008805491820181559092527ff3f7a9fe364faab93b216da50a3214154f22a0a2b415b23a84c8169e8b636ee390910180546001600160a01b031916909217909155517f85d8247bf36ce53123834da33f5a6c0fa9dc15741e86ef5e27f78030588367409061090a9083906112ef565b60405180910390a1505050565b600061092383336102b2565b9050818110156109815760405162461bcd60e51b8152602060048201526024808201527f45524332303a206275726e20616d6f756e74206578636565647320616c6c6f77604482015263616e636560e01b6064820152608401610426565b61098e8333848403610c45565b6106a18383610ff3565b6001600160a01b03821660009081526007602052604090205460ff16610a0b5760405162461bcd60e51b815260206004820152602260248201527f4f6e6c7920726f756c65747465207461626c65732063616e2062652066756e64604482015261195960f21b6064820152608401610426565b6000829050336001600160a01b0316816001600160a01b031663570ca7356040518163ffffffff1660e01b815260040160206040518083038186803b158015610a5357600080fd5b505afa158015610a67573d6000803e3d6000fd5b505050506040513d601f19601f82011682018060405250810190610a8b91906113da565b6001600160a01b031614610ad95760405162461bcd60e51b8152602060048201526015602482015274546861742773206e6f7420796f7572207461626c6560581b6044820152606401610426565b6106a1338484610d69565b6005546001600160a01b031690565b6060600480546102ff9061133c565b3360009081526001602090815260408083206001600160a01b038616845290915281205482811015610b845760405162461bcd60e51b815260206004820152602560248201527f45524332303a2064656372656173656420616c6c6f77616e63652062656c6f77604482015264207a65726f60d81b6064820152608401610426565b610b913385858403610c45565b5060019392505050565b600061038f338484610d69565b33610bb1610ae4565b6001600160a01b031614610bd75760405162461bcd60e51b8152600401610426906113a5565b6001600160a01b038116610c3c5760405162461bcd60e51b815260206004820152602660248201527f4f776e61626c653a206e6577206f776e657220697320746865207a65726f206160448201526564647265737360d01b6064820152608401610426565b6105398161112f565b6001600160a01b038316610ca75760405162461bcd60e51b8152602060048201526024808201527f45524332303a20617070726f76652066726f6d20746865207a65726f206164646044820152637265737360e01b6064820152608401610426565b6001600160a01b038216610d085760405162461bcd60e51b815260206004820152602260248201527f45524332303a20617070726f766520746f20746865207a65726f206164647265604482015261737360f01b6064820152608401610426565b6001600160a01b0383811660008181526001602090815260408083209487168084529482529182902085905590518481527f8c5be1e5ebec7d5bd14f71427d1e84f3dd0314c0f7b2291e5b200ac8c7c3b925910160405180910390a3505050565b6001600160a01b038316610dcd5760405162461bcd60e51b815260206004820152602560248201527f45524332303a207472616e736665722066726f6d20746865207a65726f206164604482015264647265737360d81b6064820152608401610426565b6001600160a01b038216610e2f5760405162461bcd60e51b815260206004820152602360248201527f45524332303a207472616e7366657220746f20746865207a65726f206164647260448201526265737360e81b6064820152608401610426565b6001600160a01b03831660009081526020819052604090205481811015610ea75760405162461bcd60e51b815260206004820152602660248201527f45524332303a207472616e7366657220616d6f756e7420657863656564732062604482015265616c616e636560d01b6064820152608401610426565b6001600160a01b03808516600090815260208190526040808220858503905591851681529081208054849290610ede90849061138d565b92505081905550826001600160a01b0316846001600160a01b03166000805160206121f283398151915284604051610f1891815260200190565b60405180910390a350505050565b6001600160a01b038216610f7c5760405162461bcd60e51b815260206004820152601f60248201527f45524332303a206d696e7420746f20746865207a65726f2061646472657373006044820152606401610426565b8060026000828254610f8e919061138d565b90915550506001600160a01b03821660009081526020819052604081208054839290610fbb90849061138d565b90915550506040518181526001600160a01b038316906000906000805160206121f28339815191529060200160405180910390a35050565b6001600160a01b0382166110535760405162461bcd60e51b815260206004820152602160248201527f45524332303a206275726e2066726f6d20746865207a65726f206164647265736044820152607360f81b6064820152608401610426565b6001600160a01b038216600090815260208190526040902054818110156110c75760405162461bcd60e51b815260206004820152602260248201527f45524332303a206275726e20616d6f756e7420657863656564732062616c616e604482015261636560f01b6064820152608401610426565b6001600160a01b03831660009081526020819052604081208383039055600280548492906110f69084906113f7565b90915550506040518281526000906001600160a01b038516906000805160206121f28339815191529060200160405180910390a3505050565b600580546001600160a01b038381166001600160a01b0319831681179093556040519116919082907f8be0079c531659141344cd1fd0a4f28419497f9722a3daafe3b4186f6b6457e090600090a35050565b610de38061140f83390190565b600060208083528351808285015260005b818110156111bb5785810183015185820160400152820161119f565b818111156111cd576000604083870101525b50601f01601f1916929092016040019392505050565b6001600160a01b038116811461053957600080fd5b6000806040838503121561120b57600080fd5b8235611216816111e3565b946020939093013593505050565b60008060006060848603121561123957600080fd5b8335611244816111e3565b92506020840135611254816111e3565b929592945050506040919091013590565b6020808252825182820181905260009190848201906040850190845b818110156112a65783516001600160a01b031683529284019291840191600101611281565b50909695505050505050565b6000602082840312156112c457600080fd5b5035919050565b6000602082840312156112dd57600080fd5b81356112e8816111e3565b9392505050565b6001600160a01b0391909116815260200190565b6000806040838503121561131657600080fd5b8235611321816111e3565b91506020830135611331816111e3565b809150509250929050565b600181811c9082168061135057607f821691505b6020821081141561137157634e487b7160e01b600052602260045260246000fd5b50919050565b634e487b7160e01b600052601160045260246000fd5b600082198211156113a0576113a0611377565b500190565b6020808252818101527f4f776e61626c653a2063616c6c6572206973206e6f7420746865206f776e6572604082015260600190565b6000602082840312156113ec57600080fd5b81516112e8816111e3565b60008282101561140957611409611377565b50039056fe608060405234801561001057600080fd5b50604051610de3380380610de383398101604081905261002f9161008d565b600080546001600160a01b039485166001600160a01b0319918216179091556009805493851693821693909317909255600880549190931691161790556100d0565b80516001600160a01b038116811461008857600080fd5b919050565b6000806000606084860312156100a257600080fd5b6100ab84610071565b92506100b960208501610071565b91506100c760408501610071565b90509250925092565b610d04806100df6000396000f3fe608060405234801561001057600080fd5b50600436106100785760003560e01c806302e28c701461007d5780633e597bd5146100a3578063570ca735146100b85780639403e8dd146100d8578063a6afd5fd146100eb578063b522000214610100578063b6b55f2514610121578063dcace36a14610134575b600080fd5b61009061008b366004610885565b610198565b6040519081526020015b60405180910390f35b6100b66100b1366004610963565b610270565b005b6000546100cb906001600160a01b031681565b60405161009a9190610a44565b6009546100cb906001600160a01b031681565b6100f3610795565b60405161009a9190610a58565b60005461011490600160a01b900460ff1681565b60405161009a9190610abd565b6100b661012f366004610885565b61081e565b610170610142366004610885565b6004602052600090815260409020805460018201546002909201546001600160a01b03909116919060ff1683565b604080516001600160a01b039094168452602084019290925260ff169082015260600161009a565b60085460405163885620bb60e01b81526004810183905260009182916001600160a01b039091169063885620bb9060240160206040518083038186803b1580156101e157600080fd5b505afa1580156101f5573d6000803e3d6000fd5b505050506040513d601f19601f820116820180604052508101906102199190610ae5565b90506025813060405160200161024692919091825260601b6001600160601b031916602082015260340190565b6040516020818303038152906040528051906020012060001c6102699190610afe565b9392505050565b600860009054906101000a90046001600160a01b03166001600160a01b03166329c88c1e6040518163ffffffff1660e01b8152600401600060405180830381600087803b1580156102c057600080fd5b505af11580156102d4573d6000803e3d6000fd5b505050506000805b82518160ff1610156105c0576000838260ff16815181106102ff576102ff610b20565b602002602001015160200151116103525760405162461bcd60e51b8152602060048201526012602482015271596f752063616e277420626574207a65726f60701b60448201526064015b60405180910390fd5b336001600160a01b0316838260ff168151811061037157610371610b20565b6020026020010151600001516001600160a01b0316146103e55760405162461bcd60e51b815260206004820152602960248201527f44696420796f75206a7573742074727920746f2062657420666f7220736f6d656044820152686f6e6520656c73653f60b81b6064820152608401610349565b600073__$ed604fe81edc1ea2d6472d444d8d6a3786$__63913d081f858460ff168151811061041657610416610b20565b6020026020010151604001516040518263ffffffff1660e01b8152600401610447919060ff91909116815260200190565b60006040518083038186803b15801561045f57600080fd5b505af4158015610473573d6000803e3d6000fd5b505050506040513d6000823e601f3d908101601f1916820160405261049b9190810190610b46565b9050600181602001516104ae9190610c39565b60ff16848360ff16815181106104c6576104c6610b20565b6020026020010151602001516104dc9190610c5c565b600760008282546104ed9190610c7b565b92505081905550838260ff168151811061050957610509610b20565b602002602001015160200151836105209190610c7b565b9250838260ff168151811061053757610537610b20565b6020026020010151600460006005600081548092919061055690610c93565b9091555081526020808201929092526040908101600020835181546001600160a01b0319166001600160a01b0390911617815591830151600183015591909101516002909101805460ff191660ff90921691909117905550806105b881610cae565b9150506102dc565b506009546040516370a0823160e01b81526001600160a01b03909116906370a08231906105f1903390600401610a44565b60206040518083038186803b15801561060957600080fd5b505afa15801561061d573d6000803e3d6000fd5b505050506040513d601f19601f820116820180604052508101906106419190610ae5565b81111561069b5760405162461bcd60e51b815260206004820152602260248201527f446f6e277420626574206d6f7265207468616e20796f752063616e206166666f6044820152611c9960f21b6064820152608401610349565b6009546040516370a0823160e01b81526001600160a01b03909116906370a08231906106cb903090600401610a44565b60206040518083038186803b1580156106e357600080fd5b505afa1580156106f7573d6000803e3d6000fd5b505050506040513d601f19601f8201168201806040525081019061071b9190610ae5565b600754111561077a5760405162461bcd60e51b815260206004820152602560248201527f57652063616e2774206166666f726420746f2070617920796f7520696620796f6044820152643a903bb4b760d91b6064820152608401610349565b806006600082825461078c9190610c7b565b90915550505050565b60608060005b60055481101561081857600081815260046020908152604091829020825160608101845281546001600160a01b031681526001820154928101929092526002015460ff169181019190915282518390839081106107fa576107fa610b20565b6020026020010181905250808061081090610c93565b91505061079b565b50919050565b6009546040516311f9fbc960e21b8152336004820152602481018390526001600160a01b03909116906347e7ef2490604401600060405180830381600087803b15801561086a57600080fd5b505af115801561087e573d6000803e3d6000fd5b5050505050565b60006020828403121561089757600080fd5b5035919050565b634e487b7160e01b600052604160045260246000fd5b604051606081016001600160401b03811182821017156108d6576108d661089e565b60405290565b604080519081016001600160401b03811182821017156108d6576108d661089e565b604051601f8201601f191681016001600160401b03811182821017156109265761092661089e565b604052919050565b60006001600160401b038211156109475761094761089e565b5060051b60200190565b60ff8116811461096057600080fd5b50565b6000602080838503121561097657600080fd5b82356001600160401b0381111561098c57600080fd5b8301601f8101851361099d57600080fd5b80356109b06109ab8261092e565b6108fe565b818152606091820283018401918482019190888411156109cf57600080fd5b938501935b83851015610a385780858a0312156109ec5760008081fd5b6109f46108b4565b85356001600160a01b0381168114610a0c5760008081fd5b81528587013587820152604080870135610a2581610951565b90820152835293840193918501916109d4565b50979650505050505050565b6001600160a01b0391909116815260200190565b602080825282518282018190526000919060409081850190868401855b82811015610ab057815180516001600160a01b03168552868101518786015285015160ff168585015260609093019290850190600101610a75565b5091979650505050505050565b6020810160028310610adf57634e487b7160e01b600052602160045260246000fd5b91905290565b600060208284031215610af757600080fd5b5051919050565b600082610b1b57634e487b7160e01b600052601260045260246000fd5b500690565b634e487b7160e01b600052603260045260246000fd5b8051610b4181610951565b919050565b60006020808385031215610b5957600080fd5b82516001600160401b0380821115610b7057600080fd5b9084019060408287031215610b8457600080fd5b610b8c6108dc565b825182811115610b9b57600080fd5b83019150601f82018713610bae57600080fd5b8151610bbc6109ab8261092e565b81815260059190911b83018501908581019089831115610bdb57600080fd5b938601935b82851015610c02578451610bf381610951565b82529386019390860190610be0565b835250610c129050838501610b36565b848201528094505050505092915050565b634e487b7160e01b600052601160045260246000fd5b600060ff821660ff841680821015610c5357610c53610c23565b90039392505050565b6000816000190483118215151615610c7657610c76610c23565b500290565b60008219821115610c8e57610c8e610c23565b500190565b6000600019821415610ca757610ca7610c23565b5060010190565b600060ff821660ff811415610cc557610cc5610c23565b6001019291505056fea2646970667358221220f467b89450a7ce1512049fec49e669bdea33ef4217305b078089b77d1fbfefaf64736f6c63430008090033ddf252ad1be2c89b69c2b068fc378daa952ba7f163c4a11628f55a4df523b3efa264697066735822122012aa4984d55739acefc5fe9c2f575ad88cd9ca98d102cc2f4c36549dccfb2a6664736f6c63430008090033",
  "linkReferences": {
    "contracts/CasinoLibrary.sol": {
      "CasinoLibrary": [
        {
          "length": 20,
          "start": 7010
        }
      ]
    }
  },
  "deployedLinkReferences": {
    "contracts/CasinoLibrary.sol": {
      "CasinoLibrary": [
        {
          "length": 20,
          "start": 6359
        }
      ]
    }
  }
}