{
  "_format": "hh-sol-artifact-1",
  "contractName": "TableNFT",
  "sourceName": "contracts/TableNFT.sol",
  "abi": [
    {
      "inputs": [],
      "stateMutability": "nonpayable",
      "type": "constructor"
    },
    {
      "anonymous": false,
      "inputs": [
        {
          "indexed": true,
          "internalType": "address",
          "name": "owner",
          "type": "address"
        },
        {
          "indexed": true,
          "internalType": "address",
          "name": "approved",
          "type": "address"
        },
        {
          "indexed": true,
          "internalType": "uint256",
          "name": "tokenId",
          "type": "uint256"
        }
      ],
      "name": "Approval",
      "type": "event"
    },
    {
      "anonymous": false,
      "inputs": [
        {
          "indexed": true,
          "internalType": "address",
          "name": "owner",
          "type": "address"
        },
        {
          "indexed": true,
          "internalType": "address",
          "name": "operator",
          "type": "address"
        },
        {
          "indexed": false,
          "internalType": "bool",
          "name": "approved",
          "type": "bool"
        }
      ],
      "name": "ApprovalForAll",
      "type": "event"
    },
    {
      "anonymous": false,
      "inputs": [
        {
          "indexed": true,
          "internalType": "bytes32",
          "name": "role",
          "type": "bytes32"
        },
        {
          "indexed": true,
          "internalType": "bytes32",
          "name": "previousAdminRole",
          "type": "bytes32"
        },
        {
          "indexed": true,
          "internalType": "bytes32",
          "name": "newAdminRole",
          "type": "bytes32"
        }
      ],
      "name": "RoleAdminChanged",
      "type": "event"
    },
    {
      "anonymous": false,
      "inputs": [
        {
          "indexed": true,
          "internalType": "bytes32",
          "name": "role",
          "type": "bytes32"
        },
        {
          "indexed": true,
          "internalType": "address",
          "name": "account",
          "type": "address"
        },
        {
          "indexed": true,
          "internalType": "address",
          "name": "sender",
          "type": "address"
        }
      ],
      "name": "RoleGranted",
      "type": "event"
    },
    {
      "anonymous": false,
      "inputs": [
        {
          "indexed": true,
          "internalType": "bytes32",
          "name": "role",
          "type": "bytes32"
        },
        {
          "indexed": true,
          "internalType": "address",
          "name": "account",
          "type": "address"
        },
        {
          "indexed": true,
          "internalType": "address",
          "name": "sender",
          "type": "address"
        }
      ],
      "name": "RoleRevoked",
      "type": "event"
    },
    {
      "anonymous": false,
      "inputs": [
        {
          "indexed": true,
          "internalType": "address",
          "name": "from",
          "type": "address"
        },
        {
          "indexed": true,
          "internalType": "address",
          "name": "to",
          "type": "address"
        },
        {
          "indexed": true,
          "internalType": "uint256",
          "name": "tokenId",
          "type": "uint256"
        }
      ],
      "name": "Transfer",
      "type": "event"
    },
    {
      "inputs": [],
      "name": "DEFAULT_ADMIN_ROLE",
      "outputs": [
        {
          "internalType": "bytes32",
          "name": "",
          "type": "bytes32"
        }
      ],
      "stateMutability": "view",
      "type": "function"
    },
    {
      "inputs": [],
      "name": "MINTER_ROLE",
      "outputs": [
        {
          "internalType": "bytes32",
          "name": "",
          "type": "bytes32"
        }
      ],
      "stateMutability": "view",
      "type": "function"
    },
    {
      "inputs": [
        {
          "internalType": "address",
          "name": "to",
          "type": "address"
        },
        {
          "internalType": "uint256",
          "name": "tokenId",
          "type": "uint256"
        }
      ],
      "name": "approve",
      "outputs": [],
      "stateMutability": "nonpayable",
      "type": "function"
    },
    {
      "inputs": [
        {
          "internalType": "address",
          "name": "owner",
          "type": "address"
        }
      ],
      "name": "balanceOf",
      "outputs": [
        {
          "internalType": "uint256",
          "name": "",
          "type": "uint256"
        }
      ],
      "stateMutability": "view",
      "type": "function"
    },
    {
      "inputs": [
        {
          "internalType": "uint256",
          "name": "tokenId",
          "type": "uint256"
        }
      ],
      "name": "burn",
      "outputs": [],
      "stateMutability": "nonpayable",
      "type": "function"
    },
    {
      "inputs": [
        {
          "internalType": "uint256",
          "name": "tokenId",
          "type": "uint256"
        }
      ],
      "name": "getApproved",
      "outputs": [
        {
          "internalType": "address",
          "name": "",
          "type": "address"
        }
      ],
      "stateMutability": "view",
      "type": "function"
    },
    {
      "inputs": [
        {
          "internalType": "bytes32",
          "name": "role",
          "type": "bytes32"
        }
      ],
      "name": "getRoleAdmin",
      "outputs": [
        {
          "internalType": "bytes32",
          "name": "",
          "type": "bytes32"
        }
      ],
      "stateMutability": "view",
      "type": "function"
    },
    {
      "inputs": [
        {
          "internalType": "bytes32",
          "name": "role",
          "type": "bytes32"
        },
        {
          "internalType": "address",
          "name": "account",
          "type": "address"
        }
      ],
      "name": "grantRole",
      "outputs": [],
      "stateMutability": "nonpayable",
      "type": "function"
    },
    {
      "inputs": [
        {
          "internalType": "bytes32",
          "name": "role",
          "type": "bytes32"
        },
        {
          "internalType": "address",
          "name": "account",
          "type": "address"
        }
      ],
      "name": "hasRole",
      "outputs": [
        {
          "internalType": "bool",
          "name": "",
          "type": "bool"
        }
      ],
      "stateMutability": "view",
      "type": "function"
    },
    {
      "inputs": [
        {
          "internalType": "address",
          "name": "owner",
          "type": "address"
        },
        {
          "internalType": "address",
          "name": "operator",
          "type": "address"
        }
      ],
      "name": "isApprovedForAll",
      "outputs": [
        {
          "internalType": "bool",
          "name": "",
          "type": "bool"
        }
      ],
      "stateMutability": "view",
      "type": "function"
    },
    {
      "inputs": [],
      "name": "name",
      "outputs": [
        {
          "internalType": "string",
          "name": "",
          "type": "string"
        }
      ],
      "stateMutability": "view",
      "type": "function"
    },
    {
      "inputs": [
        {
          "internalType": "uint256",
          "name": "tokenId",
          "type": "uint256"
        }
      ],
      "name": "ownerOf",
      "outputs": [
        {
          "internalType": "address",
          "name": "",
          "type": "address"
        }
      ],
      "stateMutability": "view",
      "type": "function"
    },
    {
      "inputs": [
        {
          "internalType": "bytes32",
          "name": "role",
          "type": "bytes32"
        },
        {
          "internalType": "address",
          "name": "account",
          "type": "address"
        }
      ],
      "name": "renounceRole",
      "outputs": [],
      "stateMutability": "nonpayable",
      "type": "function"
    },
    {
      "inputs": [
        {
          "internalType": "bytes32",
          "name": "role",
          "type": "bytes32"
        },
        {
          "internalType": "address",
          "name": "account",
          "type": "address"
        }
      ],
      "name": "revokeRole",
      "outputs": [],
      "stateMutability": "nonpayable",
      "type": "function"
    },
    {
      "inputs": [
        {
          "internalType": "address",
          "name": "to",
          "type": "address"
        }
      ],
      "name": "safeMint",
      "outputs": [],
      "stateMutability": "nonpayable",
      "type": "function"
    },
    {
      "inputs": [
        {
          "internalType": "address",
          "name": "from",
          "type": "address"
        },
        {
          "internalType": "address",
          "name": "to",
          "type": "address"
        },
        {
          "internalType": "uint256",
          "name": "tokenId",
          "type": "uint256"
        }
      ],
      "name": "safeTransferFrom",
      "outputs": [],
      "stateMutability": "nonpayable",
      "type": "function"
    },
    {
      "inputs": [
        {
          "internalType": "address",
          "name": "from",
          "type": "address"
        },
        {
          "internalType": "address",
          "name": "to",
          "type": "address"
        },
        {
          "internalType": "uint256",
          "name": "tokenId",
          "type": "uint256"
        },
        {
          "internalType": "bytes",
          "name": "_data",
          "type": "bytes"
        }
      ],
      "name": "safeTransferFrom",
      "outputs": [],
      "stateMutability": "nonpayable",
      "type": "function"
    },
    {
      "inputs": [
        {
          "internalType": "address",
          "name": "operator",
          "type": "address"
        },
        {
          "internalType": "bool",
          "name": "approved",
          "type": "bool"
        }
      ],
      "name": "setApprovalForAll",
      "outputs": [],
      "stateMutability": "nonpayable",
      "type": "function"
    },
    {
      "inputs": [
        {
          "internalType": "address",
          "name": "operator",
          "type": "address"
        }
      ],
      "name": "setMinter",
      "outputs": [],
      "stateMutability": "nonpayable",
      "type": "function"
    },
    {
      "inputs": [
        {
          "internalType": "bytes4",
          "name": "interfaceId",
          "type": "bytes4"
        }
      ],
      "name": "supportsInterface",
      "outputs": [
        {
          "internalType": "bool",
          "name": "",
          "type": "bool"
        }
      ],
      "stateMutability": "view",
      "type": "function"
    },
    {
      "inputs": [],
      "name": "symbol",
      "outputs": [
        {
          "internalType": "string",
          "name": "",
          "type": "string"
        }
      ],
      "stateMutability": "view",
      "type": "function"
    },
    {
      "inputs": [
        {
          "internalType": "uint256",
          "name": "index",
          "type": "uint256"
        }
      ],
      "name": "tokenByIndex",
      "outputs": [
        {
          "internalType": "uint256",
          "name": "",
          "type": "uint256"
        }
      ],
      "stateMutability": "view",
      "type": "function"
    },
    {
      "inputs": [
        {
          "internalType": "address",
          "name": "owner",
          "type": "address"
        },
        {
          "internalType": "uint256",
          "name": "index",
          "type": "uint256"
        }
      ],
      "name": "tokenOfOwnerByIndex",
      "outputs": [
        {
          "internalType": "uint256",
          "name": "",
          "type": "uint256"
        }
      ],
      "stateMutability": "view",
      "type": "function"
    },
    {
      "inputs": [
        {
          "internalType": "uint256",
          "name": "tokenId",
          "type": "uint256"
        }
      ],
      "name": "tokenURI",
      "outputs": [
        {
          "internalType": "string",
          "name": "",
          "type": "string"
        }
      ],
      "stateMutability": "view",
      "type": "function"
    },
    {
      "inputs": [],
      "name": "totalSupply",
      "outputs": [
        {
          "internalType": "uint256",
          "name": "",
          "type": "uint256"
        }
      ],
      "stateMutability": "view",
      "type": "function"
    },
    {
      "inputs": [
        {
          "internalType": "address",
          "name": "from",
          "type": "address"
        },
        {
          "internalType": "address",
          "name": "to",
          "type": "address"
        },
        {
          "internalType": "uint256",
          "name": "tokenId",
          "type": "uint256"
        }
      ],
      "name": "transferFrom",
      "outputs": [],
      "stateMutability": "nonpayable",
      "type": "function"
    }
  ],
  "bytecode": "0x60806040523480156200001157600080fd5b50604080518082018252600d81526c526f756c657474655461626c6560981b602080830191825283518085019094526006845265525461626c6560d01b908401528151919291620000659160009162000147565b5080516200007b90600190602084019062000147565b506200008d9150600090503362000093565b6200022a565b6200009f8282620000a3565b5050565b6000828152600a602090815260408083206001600160a01b038516845290915290205460ff166200009f576000828152600a602090815260408083206001600160a01b03851684529091529020805460ff19166001179055620001033390565b6001600160a01b0316816001600160a01b0316837f2f8788117e7eff1d82e926ec794901d17c78024a50270940304540a733656f0d60405160405180910390a45050565b8280546200015590620001ed565b90600052602060002090601f016020900481019282620001795760008555620001c4565b82601f106200019457805160ff1916838001178555620001c4565b82800160010185558215620001c4579182015b82811115620001c4578251825591602001919060010190620001a7565b50620001d2929150620001d6565b5090565b5b80821115620001d25760008155600101620001d7565b600181811c908216806200020257607f821691505b602082108114156200022457634e487b7160e01b600052602260045260246000fd5b50919050565b611f23806200023a6000396000f3fe608060405234801561001057600080fd5b506004361061013e5760003560e01c806301ffc9a71461014357806306fdde031461016b578063081812fc14610180578063095ea7b3146101ab57806318160ddd146101c057806323b872dd146101d2578063248a9ca3146101e55780632f2ff15d146101f85780632f745c591461020b57806336568abe1461021e57806340d097c31461023157806342842e0e1461024457806342966c68146102575780634f6ccce71461026a5780636352211e1461027d57806370a082311461029057806391d14854146102a357806395d89b41146102b6578063a217fddf146102be578063a22cb465146102c6578063b88d4fde146102d9578063c87b56dd146102ec578063d5391393146102ff578063d547741f14610314578063e985e9c514610327578063fca3b5aa1461033a575b600080fd5b610156610151366004611916565b61034d565b60405190151581526020015b60405180910390f35b61017361035e565b604051610162919061198b565b61019361018e36600461199e565b6103f0565b6040516001600160a01b039091168152602001610162565b6101be6101b93660046119d3565b61047d565b005b6008545b604051908152602001610162565b6101be6101e03660046119fd565b61058e565b6101c46101f336600461199e565b6105c0565b6101be610206366004611a39565b6105d5565b6101c46102193660046119d3565b6105f2565b6101be61022c366004611a39565b610688565b6101be61023f366004611a65565b610706565b6101be6102523660046119fd565b610744565b6101be61026536600461199e565b61075f565b6101c461027836600461199e565b6107d9565b61019361028b36600461199e565b61086c565b6101c461029e366004611a65565b6108e3565b6101566102b1366004611a39565b61096a565b610173610995565b6101c4600081565b6101be6102d4366004611a80565b6109a4565b6101be6102e7366004611ad2565b610a65565b6101736102fa36600461199e565b610a9d565b6101c4600080516020611eae83398151915281565b6101be610322366004611a39565b610b75565b610156610335366004611bad565b610b92565b6101be610348366004611a65565b610bc0565b600061035882610be4565b92915050565b60606000805461036d90611bd7565b80601f016020809104026020016040519081016040528092919081815260200182805461039990611bd7565b80156103e65780601f106103bb576101008083540402835291602001916103e6565b820191906000526020600020905b8154815290600101906020018083116103c957829003601f168201915b5050505050905090565b60006103fb82610c09565b6104615760405162461bcd60e51b815260206004820152602c60248201527f4552433732313a20617070726f76656420717565727920666f72206e6f6e657860448201526b34b9ba32b73a103a37b5b2b760a11b60648201526084015b60405180910390fd5b506000908152600460205260409020546001600160a01b031690565b60006104888261086c565b9050806001600160a01b0316836001600160a01b031614156104f65760405162461bcd60e51b815260206004820152602160248201527f4552433732313a20617070726f76616c20746f2063757272656e74206f776e656044820152603960f91b6064820152608401610458565b336001600160a01b038216148061051257506105128133610b92565b61057f5760405162461bcd60e51b815260206004820152603860248201527f4552433732313a20617070726f76652063616c6c6572206973206e6f74206f776044820152771b995c881b9bdc88185c1c1c9bdd995908199bdc88185b1b60421b6064820152608401610458565b6105898383610c26565b505050565b610599335b82610c94565b6105b55760405162461bcd60e51b815260040161045890611c12565b610589838383610d5e565b6000908152600a602052604090206001015490565b6105de826105c0565b6105e88133610ef7565b6105898383610f5b565b60006105fd836108e3565b821061065f5760405162461bcd60e51b815260206004820152602b60248201527f455243373231456e756d657261626c653a206f776e657220696e646578206f7560448201526a74206f6620626f756e647360a81b6064820152608401610458565b506001600160a01b03919091166000908152600660209081526040808320938352929052205490565b6001600160a01b03811633146106f85760405162461bcd60e51b815260206004820152602f60248201527f416363657373436f6e74726f6c3a2063616e206f6e6c792072656e6f756e636560448201526e103937b632b9903337b91039b2b63360891b6064820152608401610458565b6107028282610fe1565b5050565b600080516020611eae83398151915261071f8133610ef7565b600061072a600b5490565b905061073a600b80546001019055565b6105898382611048565b61058983838360405180602001604052806000815250610a65565b61076833610593565b6107cd5760405162461bcd60e51b815260206004820152603060248201527f4552433732314275726e61626c653a2063616c6c6572206973206e6f74206f7760448201526f1b995c881b9bdc88185c1c1c9bdd995960821b6064820152608401610458565b6107d681611062565b50565b60006107e460085490565b82106108475760405162461bcd60e51b815260206004820152602c60248201527f455243373231456e756d657261626c653a20676c6f62616c20696e646578206f60448201526b7574206f6620626f756e647360a01b6064820152608401610458565b6008828154811061085a5761085a611c63565b90600052602060002001549050919050565b6000818152600260205260408120546001600160a01b0316806103585760405162461bcd60e51b815260206004820152602960248201527f4552433732313a206f776e657220717565727920666f72206e6f6e657869737460448201526832b73a103a37b5b2b760b91b6064820152608401610458565b60006001600160a01b03821661094e5760405162461bcd60e51b815260206004820152602a60248201527f4552433732313a2062616c616e636520717565727920666f7220746865207a65604482015269726f206164647265737360b01b6064820152608401610458565b506001600160a01b031660009081526003602052604090205490565b6000918252600a602090815260408084206001600160a01b0393909316845291905290205460ff1690565b60606001805461036d90611bd7565b6001600160a01b0382163314156109f95760405162461bcd60e51b815260206004820152601960248201527822a9219b99189d1030b8383937bb32903a379031b0b63632b960391b6044820152606401610458565b3360008181526005602090815260408083206001600160a01b03871680855290835292819020805460ff191686151590811790915590519081529192917f17307eab39ab6107e8899845ad3d59bd9653f200f220920489ca2b5937696c31910160405180910390a35050565b610a6f3383610c94565b610a8b5760405162461bcd60e51b815260040161045890611c12565b610a97848484846110f7565b50505050565b6060610aa882610c09565b610b0c5760405162461bcd60e51b815260206004820152602f60248201527f4552433732314d657461646174613a2055524920717565727920666f72206e6f60448201526e3732bc34b9ba32b73a103a37b5b2b760891b6064820152608401610458565b6000610b2360408051602081019091526000815290565b90506000815111610b435760405180602001604052806000815250610b6e565b80610b4d8461112a565b604051602001610b5e929190611c79565b6040516020818303038152906040525b9392505050565b610b7e826105c0565b610b888133610ef7565b6105898383610fe1565b6001600160a01b03918216600090815260056020908152604080832093909416825291909152205460ff1690565b6000610bcc8133610ef7565b610702600080516020611eae83398151915283611227565b60006001600160e01b03198216637965db0b60e01b1480610358575061035882611231565b6000908152600260205260409020546001600160a01b0316151590565b600081815260046020526040902080546001600160a01b0319166001600160a01b0384169081179091558190610c5b8261086c565b6001600160a01b03167f8c5be1e5ebec7d5bd14f71427d1e84f3dd0314c0f7b2291e5b200ac8c7c3b92560405160405180910390a45050565b6000610c9f82610c09565b610d005760405162461bcd60e51b815260206004820152602c60248201527f4552433732313a206f70657261746f7220717565727920666f72206e6f6e657860448201526b34b9ba32b73a103a37b5b2b760a11b6064820152608401610458565b6000610d0b8361086c565b9050806001600160a01b0316846001600160a01b03161480610d465750836001600160a01b0316610d3b846103f0565b6001600160a01b0316145b80610d565750610d568185610b92565b949350505050565b826001600160a01b0316610d718261086c565b6001600160a01b031614610dd95760405162461bcd60e51b815260206004820152602960248201527f4552433732313a207472616e73666572206f6620746f6b656e2074686174206960448201526839903737ba1037bbb760b91b6064820152608401610458565b6001600160a01b038216610e3b5760405162461bcd60e51b8152602060048201526024808201527f4552433732313a207472616e7366657220746f20746865207a65726f206164646044820152637265737360e01b6064820152608401610458565b610e46838383611256565b610e51600082610c26565b6001600160a01b0383166000908152600360205260408120805460019290610e7a908490611cbe565b90915550506001600160a01b0382166000908152600360205260408120805460019290610ea8908490611cd5565b909155505060008181526002602052604080822080546001600160a01b0319166001600160a01b038681169182179092559151849391871691600080516020611ece83398151915291a4505050565b610f01828261096a565b61070257610f19816001600160a01b03166014611261565b610f24836020611261565b604051602001610f35929190611ced565b60408051601f198184030181529082905262461bcd60e51b82526104589160040161198b565b610f65828261096a565b610702576000828152600a602090815260408083206001600160a01b03851684529091529020805460ff19166001179055610f9d3390565b6001600160a01b0316816001600160a01b0316837f2f8788117e7eff1d82e926ec794901d17c78024a50270940304540a733656f0d60405160405180910390a45050565b610feb828261096a565b15610702576000828152600a602090815260408083206001600160a01b0385168085529252808320805460ff1916905551339285917ff6391f5c32d9c69d2a47ea670b442974b53935d1edc7fd64eb21e047a839171b9190a45050565b6107028282604051806020016040528060008152506113fc565b600061106d8261086c565b905061107b81600084611256565b611086600083610c26565b6001600160a01b03811660009081526003602052604081208054600192906110af908490611cbe565b909155505060008281526002602052604080822080546001600160a01b0319169055518391906001600160a01b03841690600080516020611ece833981519152908390a45050565b611102848484610d5e565b61110e8484848461142f565b610a975760405162461bcd60e51b815260040161045890611d5c565b60608161114e5750506040805180820190915260018152600360fc1b602082015290565b8160005b8115611178578061116281611dae565b91506111719050600a83611ddf565b9150611152565b6000816001600160401b0381111561119257611192611abc565b6040519080825280601f01601f1916602001820160405280156111bc576020820181803683370190505b5090505b8415610d56576111d1600183611cbe565b91506111de600a86611df3565b6111e9906030611cd5565b60f81b8183815181106111fe576111fe611c63565b60200101906001600160f81b031916908160001a905350611220600a86611ddf565b94506111c0565b6107028282610f5b565b60006001600160e01b0319821663780e9d6360e01b148061035857506103588261153c565b61058983838361158c565b60606000611270836002611e07565b61127b906002611cd5565b6001600160401b0381111561129257611292611abc565b6040519080825280601f01601f1916602001820160405280156112bc576020820181803683370190505b509050600360fc1b816000815181106112d7576112d7611c63565b60200101906001600160f81b031916908160001a905350600f60fb1b8160018151811061130657611306611c63565b60200101906001600160f81b031916908160001a905350600061132a846002611e07565b611335906001611cd5565b90505b60018111156113ad576f181899199a1a9b1b9c1cb0b131b232b360811b85600f166010811061136957611369611c63565b1a60f81b82828151811061137f5761137f611c63565b60200101906001600160f81b031916908160001a90535060049490941c936113a681611e26565b9050611338565b508315610b6e5760405162461bcd60e51b815260206004820181905260248201527f537472696e67733a20686578206c656e67746820696e73756666696369656e746044820152606401610458565b6114068383611644565b611413600084848461142f565b6105895760405162461bcd60e51b815260040161045890611d5c565b60006001600160a01b0384163b1561153157604051630a85bd0160e11b81526001600160a01b0385169063150b7a0290611473903390899088908890600401611e3d565b602060405180830381600087803b15801561148d57600080fd5b505af19250505080156114bd575060408051601f3d908101601f191682019092526114ba91810190611e7a565b60015b611517573d8080156114eb576040519150601f19603f3d011682016040523d82523d6000602084013e6114f0565b606091505b50805161150f5760405162461bcd60e51b815260040161045890611d5c565b805181602001fd5b6001600160e01b031916630a85bd0160e11b149050610d56565b506001949350505050565b60006001600160e01b031982166380ac58cd60e01b148061156d57506001600160e01b03198216635b5e139f60e01b145b8061035857506301ffc9a760e01b6001600160e01b0319831614610358565b6001600160a01b0383166115e7576115e281600880546000838152600960205260408120829055600182018355919091527ff3f7a9fe364faab93b216da50a3214154f22a0a2b415b23a84c8169e8b636ee30155565b61160a565b816001600160a01b0316836001600160a01b03161461160a5761160a8382611770565b6001600160a01b038216611621576105898161180d565b826001600160a01b0316826001600160a01b0316146105895761058982826118bc565b6001600160a01b03821661169a5760405162461bcd60e51b815260206004820181905260248201527f4552433732313a206d696e7420746f20746865207a65726f20616464726573736044820152606401610458565b6116a381610c09565b156116ef5760405162461bcd60e51b815260206004820152601c60248201527b115490cdcc8c4e881d1bdad95b88185b1c9958591e481b5a5b9d195960221b6044820152606401610458565b6116fb60008383611256565b6001600160a01b0382166000908152600360205260408120805460019290611724908490611cd5565b909155505060008181526002602052604080822080546001600160a01b0319166001600160a01b0386169081179091559051839290600080516020611ece833981519152908290a45050565b6000600161177d846108e3565b6117879190611cbe565b6000838152600760205260409020549091508082146117da576001600160a01b03841660009081526006602090815260408083208584528252808320548484528184208190558352600790915290208190555b5060009182526007602090815260408084208490556001600160a01b039094168352600681528383209183525290812055565b60085460009061181f90600190611cbe565b6000838152600960205260408120546008805493945090928490811061184757611847611c63565b90600052602060002001549050806008838154811061186857611868611c63565b60009182526020808320909101929092558281526009909152604080822084905585825281205560088054806118a0576118a0611e97565b6001900381819060005260206000200160009055905550505050565b60006118c7836108e3565b6001600160a01b039093166000908152600660209081526040808320868452825280832085905593825260079052919091209190915550565b6001600160e01b0319811681146107d657600080fd5b60006020828403121561192857600080fd5b8135610b6e81611900565b60005b8381101561194e578181015183820152602001611936565b83811115610a975750506000910152565b60008151808452611977816020860160208601611933565b601f01601f19169290920160200192915050565b602081526000610b6e602083018461195f565b6000602082840312156119b057600080fd5b5035919050565b80356001600160a01b03811681146119ce57600080fd5b919050565b600080604083850312156119e657600080fd5b6119ef836119b7565b946020939093013593505050565b600080600060608486031215611a1257600080fd5b611a1b846119b7565b9250611a29602085016119b7565b9150604084013590509250925092565b60008060408385031215611a4c57600080fd5b82359150611a5c602084016119b7565b90509250929050565b600060208284031215611a7757600080fd5b610b6e826119b7565b60008060408385031215611a9357600080fd5b611a9c836119b7565b915060208301358015158114611ab157600080fd5b809150509250929050565b634e487b7160e01b600052604160045260246000fd5b60008060008060808587031215611ae857600080fd5b611af1856119b7565b9350611aff602086016119b7565b92506040850135915060608501356001600160401b0380821115611b2257600080fd5b818701915087601f830112611b3657600080fd5b813581811115611b4857611b48611abc565b604051601f8201601f19908116603f01168101908382118183101715611b7057611b70611abc565b816040528281528a6020848701011115611b8957600080fd5b82602086016020830137600060208483010152809550505050505092959194509250565b60008060408385031215611bc057600080fd5b611bc9836119b7565b9150611a5c602084016119b7565b600181811c90821680611beb57607f821691505b60208210811415611c0c57634e487b7160e01b600052602260045260246000fd5b50919050565b60208082526031908201527f4552433732313a207472616e736665722063616c6c6572206973206e6f74206f6040820152701ddb995c881b9bdc88185c1c1c9bdd9959607a1b606082015260800190565b634e487b7160e01b600052603260045260246000fd5b60008351611c8b818460208801611933565b835190830190611c9f818360208801611933565b01949350505050565b634e487b7160e01b600052601160045260246000fd5b600082821015611cd057611cd0611ca8565b500390565b60008219821115611ce857611ce8611ca8565b500190565b76020b1b1b2b9b9a1b7b73a3937b61d1030b1b1b7bab73a1604d1b815260008351611d1f816017850160208801611933565b7001034b99036b4b9b9b4b733903937b6329607d1b6017918401918201528351611d50816028840160208801611933565b01602801949350505050565b60208082526032908201527f4552433732313a207472616e7366657220746f206e6f6e20455243373231526560408201527131b2b4bb32b91034b6b83632b6b2b73a32b960711b606082015260800190565b6000600019821415611dc257611dc2611ca8565b5060010190565b634e487b7160e01b600052601260045260246000fd5b600082611dee57611dee611dc9565b500490565b600082611e0257611e02611dc9565b500690565b6000816000190483118215151615611e2157611e21611ca8565b500290565b600081611e3557611e35611ca8565b506000190190565b6001600160a01b0385811682528416602082015260408101839052608060608201819052600090611e709083018461195f565b9695505050505050565b600060208284031215611e8c57600080fd5b8151610b6e81611900565b634e487b7160e01b600052603160045260246000fdfe9f2df0fed2c77648de5860a4cc508cd0818c85b8b8a1ab4ceeef8d981c8956a6ddf252ad1be2c89b69c2b068fc378daa952ba7f163c4a11628f55a4df523b3efa2646970667358221220a7ac8fcf0cda257f5549cb910e44cad5b0513f4a4778bfb2836a932989acaa1e64736f6c63430008090033",
  "linkReferences": {},
  "deployedLinkReferences": {}
}